{
  "contractName": "GlobalTransactionManager",
  "abi": [
    {
      "inputs": [
        {
          "internalType": "address",
          "name": "_sidemesh",
          "type": "address"
        },
        {
          "internalType": "address",
          "name": "_registery",
          "type": "address"
        },
        {
          "internalType": "address",
          "name": "_verifier",
          "type": "address"
        },
        {
          "internalType": "address",
          "name": "_lockManager",
          "type": "address"
        }
      ],
      "stateMutability": "nonpayable",
      "type": "constructor"
    },
    {
      "inputs": [
        {
          "internalType": "uint256",
          "name": "ttlHeight",
          "type": "uint256"
        },
        {
          "internalType": "uint256",
          "name": "ttlTime",
          "type": "uint256"
        }
      ],
      "name": "startGlobalTransaction",
      "outputs": [],
      "stateMutability": "nonpayable",
      "type": "function"
    },
    {
      "inputs": [
        {
          "internalType": "string",
          "name": "network",
          "type": "string"
        },
        {
          "internalType": "uint256",
          "name": "chain",
          "type": "uint256"
        },
        {
          "internalType": "address",
          "name": "contractC",
          "type": "address"
        },
        {
          "internalType": "string",
          "name": "functionC",
          "type": "string"
        },
        {
          "internalType": "string[]",
          "name": "args",
          "type": "string[]"
        }
      ],
      "name": "registerNetworkTransaction",
      "outputs": [],
      "stateMutability": "nonpayable",
      "type": "function"
    },
    {
      "inputs": [
        {
          "internalType": "string",
          "name": "functionC",
          "type": "string"
        }
      ],
      "name": "preparePrimaryTransaction",
      "outputs": [],
      "stateMutability": "nonpayable",
      "type": "function"
    },
    {
      "inputs": [
        {
          "internalType": "address",
          "name": "primaryPrepareTxSender",
          "type": "address"
        },
        {
          "internalType": "string[][]",
          "name": "networkTxRes",
          "type": "string[][]"
        }
      ],
      "name": "confirmPrimaryTransaction",
      "outputs": [],
      "stateMutability": "nonpayable",
      "type": "function"
    },
    {
      "inputs": [
        {
          "internalType": "string",
          "name": "primaryNetwork",
          "type": "string"
        },
        {
          "internalType": "uint256",
          "name": "primaryChain",
          "type": "uint256"
        },
        {
          "internalType": "address",
          "name": "primaryTxSender",
          "type": "address"
        },
        {
          "internalType": "string",
          "name": "primaryTxProof",
          "type": "string"
        }
      ],
      "name": "startNetworkTransaction",
      "outputs": [],
      "stateMutability": "nonpayable",
      "type": "function"
    },
    {
      "inputs": [
        {
          "internalType": "string",
          "name": "primaryNetwork",
          "type": "string"
        },
        {
          "internalType": "uint256",
          "name": "primaryChain",
          "type": "uint256"
        },
        {
          "internalType": "address",
          "name": "primaryTxSender",
          "type": "address"
        },
        {
          "internalType": "address",
          "name": "globalTxQueryContract",
          "type": "address"
        },
        {
          "internalType": "string",
          "name": "globalTxQueryFunc",
          "type": "string"
        },
        {
          "internalType": "string",
          "name": "functionC",
          "type": "string"
        }
      ],
      "name": "prepareNetworkTransaction",
      "outputs": [],
      "stateMutability": "nonpayable",
      "type": "function"
    },
    {
      "inputs": [
        {
          "internalType": "address",
          "name": "networkPrepareTxSender",
          "type": "address"
        },
        {
          "internalType": "uint256",
          "name": "globalTxStatus",
          "type": "uint256"
        },
        {
          "internalType": "string",
          "name": "primaryNetwork",
          "type": "string"
        },
        {
          "internalType": "uint256",
          "name": "primaryChain",
          "type": "uint256"
        },
        {
          "internalType": "address",
          "name": "primaryConfirmTxSender",
          "type": "address"
        },
        {
          "internalType": "string",
          "name": "primaryConfirmTxProof",
          "type": "string"
        }
      ],
      "name": "confirmNetworkTransaction",
      "outputs": [],
      "stateMutability": "nonpayable",
      "type": "function"
    }
  ],
  "bytecode": "0x60806040523480156200001157600080fd5b5060405162004897380380620048978339810160408190526200003491620000a5565b600080546001600160a01b039586166001600160a01b031991821617909155600280549486169482169490941790935560018054928516928416929092179091556003805491909316911617905562000102565b80516001600160a01b0381168114620000a057600080fd5b919050565b60008060008060808587031215620000bc57600080fd5b620000c78562000088565b9350620000d76020860162000088565b9250620000e76040860162000088565b9150620000f76060860162000088565b905092959194509250565b61478580620001126000396000f3fe608060405234801561001057600080fd5b506004361061007d5760003560e01c80635d5974ca1161005b5780635d5974ca146100bd5780638cbaefda146100d05780639ce27542146100e3578063ea71adfd146100f657600080fd5b806316b41747146100825780634eff7c4614610097578063560d03d1146100aa575b600080fd5b610095610090366004613864565b610109565b005b6100956100a536600461392a565b611216565b6100956100b83660046139e4565b6116d3565b6100956100cb366004613a66565b611995565b6100956100de366004613ae9565b612117565b6100956100f1366004613b90565b61233d565b610095610104366004613bcd565b612aa1565b60008060009054906101000a90046001600160a01b03166001600160a01b03166307e4b7e96040518163ffffffff1660e01b815260040160006040518083038186803b15801561015857600080fd5b505afa15801561016c573d6000803e3d6000fd5b505050506040513d6000823e601f3d908101601f191682016040526101949190810190613c64565b905060006101ee6040518060400160405280600a815260200169534944455f4d4553485f60b01b8152508346876040516020016101d49493929190613c99565b604051602081830303815290604052805160209091012090565b90506006600082815260200190815260200160002060060160019054906101000a900460ff1660405180606001604052806023815260200161469660239139906102545760405162461bcd60e51b815260040161024b9190613d11565b60405180910390fd5b5060008181526006602081905260408220015460ff16600281111561027b5761027b613d2b565b146040518060600160405280602c8152602001614702602c9139906102b35760405162461bcd60e51b815260040161024b9190613d11565b50600081815260076020908152604091829020601001548251808401909352601383527f4e6f7420666f756e6420676c6f62616c207478000000000000000000000000009183019190915260ff1661031e5760405162461bcd60e51b815260040161024b9190613d11565b50825160076000838152602001908152602001600020600b0154146040518060800160405280604d8152602001614649604d9139906103705760405162461bcd60e51b815260040161024b9190613d11565b506000805b84518110156107f5576103ba85828151811061039357610393613d41565b60200260200101516002815181106103ad576103ad613d41565b6020026020010151612c91565b6000848152600760209081526040808320858452600a01909152902060020180546001600160a01b0319166001600160a01b0392909216919091179055845185908290811061040b5761040b613d41565b602002602001015160038151811061042557610425613d41565b6020908102919091018101516000858152600783526040808220858352600a0184529020815161045e936006909201929091019061330c565b50600154855160009182916001600160a01b039091169063f9c2af869089908690811061048d5761048d613d41565b60200260200101516000815181106104a7576104a7613d41565b60200260200101516104eb8a87815181106104c4576104c4613d41565b60200260200101516001815181106104de576104de613d41565b6020026020010151612e7e565b6040518363ffffffff1660e01b8152600401610508929190613d57565b60006040518083038186803b15801561052057600080fd5b505afa158015610534573d6000803e3d6000fd5b505050506040513d6000823e601f3d908101601f1916820160405261055c9190810190613d79565b91509150610568600190565b1560405180604001604052806011815260200170436f6e747261637420697320656d70747960781b815250906105b15760405162461bcd60e51b815260040161024b9190613d11565b506105bb81613041565b156040518060400160405280601181526020017046756e6374696f6e20697320656d70747960781b815250906106045760405162461bcd60e51b815260040161024b9190613d11565b5061064187848151811061061a5761061a613d41565b602002602001015160038151811061063457610634613d41565b6020026020010151613041565b6107e0576000826001600160a01b03168289868151811061066457610664613d41565b602002602001015160028151811061067e5761067e613d41565b60200260200101518a878151811061069857610698613d41565b60200260200101516003815181106106b2576106b2613d41565b60200260200101516040516024016106cb929190613dca565b60408051601f1981840301815290829052916106e691613df8565b60408051918290039091206020830180516001600160e01b03167fffffffff00000000000000000000000000000000000000000000000000000000909216919091179052516107359190613df8565b6000604051808303816000865af19150503d8060008114610772576040519150601f19603f3d011682016040523d82523d6000602084013e610777565b606091505b50509050806040518060400160405280601881526020017f5072696d61727920747820766572696679206661696c65640000000000000000815250906107d05760405162461bcd60e51b815260040161024b9190613d11565b50846107db81613e2a565b955050505b505080806107ed90613e2a565b915050610375565b506000828152600760205260409020600b015481141561083157600082815260066020819052604090912001805460ff1916600117905561084f565b600082815260066020819052604090912001805460ff191660021790555b60035460405163b5081f2d60e01b8152600481018490526000916001600160a01b03169063b5081f2d9060240160206040518083038186803b15801561089457600080fd5b505afa1580156108a8573d6000803e3d6000fd5b505050506040513d601f19601f820116820180604052508101906108cc9190613e45565b1115610d045760005b60035460405163b5081f2d60e01b8152600481018590526001600160a01b039091169063b5081f2d9060240160206040518083038186803b15801561091957600080fd5b505afa15801561092d573d6000803e3d6000fd5b505050506040513d601f19601f820116820180604052508101906109519190613e45565b811015610d02576003546040516330c3beb560e11b815260048101859052602481018390526000916109f7916001600160a01b03909116906361877d6a906044015b60006040518083038186803b1580156109ab57600080fd5b505afa1580156109bf573d6000803e3d6000fd5b505050506040513d6000823e601f3d908101601f191682016040526109e79190810190613c64565b6040516020016101d49190613df8565b600354604051631ade4f6b60e31b8152600481018390529192506000916001600160a01b039091169063d6f27b589060240160006040518083038186803b158015610a4157600080fd5b505afa158015610a55573d6000803e3d6000fd5b505050506040513d6000823e601f3d908101601f19168201604052610a7d9190810190613e73565b90508060600151604051806040016040528060078152602001664e6f204c6f636b60c81b81525090610ac25760405162461bcd60e51b815260040161024b9190613d11565b5060016000868152600660208190526040909120015460ff166002811115610aec57610aec613d2b565b1415610bda576003546040808301519051633ec93d5b60e21b81526001600160a01b0390921691635732a361918591849163fb24f56c91610b309190600401613d11565b600060405180830381600087803b158015610b4a57600080fd5b505af1158015610b5e573d6000803e3d6000fd5b505050506040513d6000823e601f3d908101601f19168201604052610b869190810190613e73565b6040518363ffffffff1660e01b8152600401610ba3929190613ff0565b600060405180830381600087803b158015610bbd57600080fd5b505af1158015610bd1573d6000803e3d6000fd5b50505050610ced565b60026000868152600660208190526040909120015460ff166002811115610c0357610c03613d2b565b1415610ced576003546020820151604051633ec93d5b60e21b81526001600160a01b0390921691635732a361918591849163fb24f56c91610c479190600401613d11565b600060405180830381600087803b158015610c6157600080fd5b505af1158015610c75573d6000803e3d6000fd5b505050506040513d6000823e601f3d908101601f19168201604052610c9d9190810190613e73565b6040518363ffffffff1660e01b8152600401610cba929190613ff0565b600060405180830381600087803b158015610cd457600080fd5b505af1158015610ce8573d6000803e3d6000fd5b505050505b50508080610cfa90613e2a565b9150506108d5565b505b60005b6000838152600760205260409020600b01548110156111a157610d28613390565b610d306133d0565b604080518082018252600087815260076020908152838220878352600a019052919091208054829190610d6290614068565b80601f0160208091040260200160405190810160405280929190818152602001828054610d8e90614068565b8015610ddb5780601f10610db057610100808354040283529160200191610ddb565b820191906000526020600020905b815481529060010190602001808311610dbe57829003601f168201915b50505091835250506000878152600760209081526040808320888452600a018083528184206001810154958401959095529486528587528051606080820183528184018190529181019190915260038401546001600160a01b0316815291879052929092526004018054610e4e90614068565b80601f0160208091040260200160405190810160405280929190818152602001828054610e7a90614068565b8015610ec75780601f10610e9c57610100808354040283529160200191610ec7565b820191906000526020600020905b815481529060010190602001808311610eaa57829003601f168201915b5050505050602082015260408051600580825260c0820190925290816020015b6060815260200190600190039081610ee757905050604082810191909152600087815260076020908152828220878352600a0181529082902060020154915160609290921b6bffffffffffffffffffffffff191690820152610f59906034015b60405160208183030381529060405290565b8160400151600081518110610f7057610f70613d41565b6020908102919091018101919091526000878152600691829052604090200154610fba9060ff166002811115610fa857610fa8613d2b565b604051602001610f4791815260200190565b8160400151600181518110610fd157610fd1613d41565b6020026020010181905250868160400151600281518110610ff457610ff4613d41565b602002602001018190525061101546604051602001610f4791815260200190565b816040015160038151811061102c5761102c613d41565b602002602001018190525061106333604051602001610f47919060609190911b6bffffffffffffffffffffffff1916815260140190565b816040015160048151811061107a5761107a613d41565b6020908102919091018101919091528381018290526000878152600782526040808220600d8101548352600c01835290208451805180518051889585939284926110c7928492019061330c565b5060209182015160019091015591820151600290910180546001600160a01b039283166001600160a01b031991821617909155848301518051600386018054919094169216919091178255808301518051919361112c9260048701929091019061330c565b5060408201518051611148916002840191602090910190613405565b5050506040820151805161116691600684019160209091019061330c565b5050506000868152600760205260408120600d0180549161118683613e2a565b9190505550505050808061119990613e2a565b915050610d07565b506111ad826000613083565b60408051608081018252808201858152466060830152815233602082015290517f171c9332e85593b9115f9eecd2bf8a7317c4d2950df4cfc988aa60fb5ca77749916111fb916005906142a0565b60405180910390a161120f6005600061345e565b5050505050565b60008060009054906101000a90046001600160a01b03166001600160a01b03166307e4b7e96040518163ffffffff1660e01b815260040160006040518083038186803b15801561126557600080fd5b505afa158015611279573d6000803e3d6000fd5b505050506040513d6000823e601f3d908101601f191682016040526112a19190810190613c64565b604080516080810182528082018a815260608083018b90529082526001600160a01b038981166020808501919091528451928301855290891682528101879052825160018082528185018552949550919360009391929183019190816020015b60608152602001906001900390816113015790505090526040516bffffffffffffffffffffffff1960608a901b166020820152909150603401604051602081830303815290604052816040015160008151811061136057611360613d41565b602002602001018190525060006113a96040518060400160405280600a815260200169534944455f4d4553485f60b01b8152508546336040516020016101d49493929190613c99565b60035460405163e817aaa560e01b8152600481018390529192506000916001600160a01b039091169063e817aaa59060240160206040518083038186803b1580156113f357600080fd5b505afa158015611407573d6000803e3d6000fd5b505050506040513d601f19601f8201168201806040525081019061142b9190613e45565b11156115ac5760005b60035460405163e817aaa560e01b8152600481018490526001600160a01b039091169063e817aaa59060240160206040518083038186803b15801561147857600080fd5b505afa15801561148c573d6000803e3d6000fd5b505050506040513d601f19601f820116820180604052508101906114b09190613e45565b8110156115aa5760035460405163929c216160e01b815260048101849052602481018390526001600160a01b039091169063ba70311e908490839063929c21619060440160006040518083038186803b15801561150c57600080fd5b505afa158015611520573d6000803e3d6000fd5b505050506040513d6000823e601f3d908101601f191682016040526115489190810190613c64565b6040518363ffffffff1660e01b81526004016115659291906142c5565b600060405180830381600087803b15801561157f57600080fd5b505af1158015611593573d6000803e3d6000fd5b5050505080806115a290613e2a565b915050611434565b505b6115d9604051806060016040528060006001600160a01b0316815260200160608152602001606081525090565b6020810186905260408051600180825281830190925290816020015b60608152602001906001900390816115f5575050604082810191909152513360601b6bffffffffffffffffffffffff1916602082015261163790603401610f47565b816040015160008151811061164e5761164e613d41565b6020026020010181905250611661613390565b604080516080810182528082018881524660608301528152336020808301919091529083528201839052517fbca3655a364f084c5bf278eace9ff0700996e453132a72b1bf93003a7ede0d36906116bd9087908790859061436b565b60405180910390a1505050505050505050505050565b6116dc81613041565b156040518060400160405280601581526020017f4e656564207072696d6172792074782070726f6f660000000000000000000000815250906117315760405162461bcd60e51b815260040161024b9190613d11565b50600154604051637ce157c360e11b815260009182916001600160a01b039091169063f9c2af86906117699089908990600401613d57565b60006040518083038186803b15801561178157600080fd5b505afa158015611795573d6000803e3d6000fd5b505050506040513d6000823e601f3d908101601f191682016040526117bd9190810190613d79565b915091506117c9600190565b1560405180604001604052806011815260200170436f6e747261637420697320656d70747960781b815250906118125760405162461bcd60e51b815260040161024b9190613d11565b5061181c81613041565b156040518060400160405280601181526020017046756e6374696f6e20697320656d70747960781b815250906118655760405162461bcd60e51b815260040161024b9190613d11565b506000826001600160a01b03168286866040516024016118869291906143ec565b60408051601f1981840301815290829052916118a191613df8565b60408051918290039091206020830180516001600160e01b03167fffffffff00000000000000000000000000000000000000000000000000000000909216919091179052516118f09190613df8565b6000604051808303816000865af19150503d806000811461192d576040519150601f19603f3d011682016040523d82523d6000602084013e611932565b606091505b50509050806040518060400160405280601881526020017f5072696d61727920747820766572696679206661696c656400000000000000008152509061198b5760405162461bcd60e51b815260040161024b9190613d11565b5050505050505050565b600154604051637ce157c360e11b815260009182916001600160a01b039091169063f9c2af86906119cc9089908990600401613d57565b60006040518083038186803b1580156119e457600080fd5b505afa1580156119f8573d6000803e3d6000fd5b505050506040513d6000823e601f3d908101601f19168201604052611a209190810190613d79565b91509150611a2c600190565b1560405180604001604052806011815260200170436f6e747261637420697320656d70747960781b81525090611a755760405162461bcd60e51b815260040161024b9190613d11565b50611a7f81613041565b156040518060400160405280601181526020017046756e6374696f6e20697320656d70747960781b81525090611ac85760405162461bcd60e51b815260040161024b9190613d11565b50611ad283613041565b156040518060600160405280602581526020016146dd6025913990611b0a5760405162461bcd60e51b815260040161024b9190613d11565b506000826001600160a01b0316828686604051602401611b2b9291906143ec565b60408051601f198184030181529082905291611b4691613df8565b60408051918290039091206020830180516001600160e01b03167fffffffff0000000000000000000000000000000000000000000000000000000090921691909117905251611b959190613df8565b6000604051808303816000865af19150503d8060008114611bd2576040519150601f19603f3d011682016040523d82523d6000602084013e611bd7565b606091505b50509050806040518060400160405280602081526020017f5072696d61727920636f6e6669726d20747820766572696679206661696c656481525090611c305760405162461bcd60e51b815260040161024b9190613d11565b5060008060009054906101000a90046001600160a01b03166001600160a01b03166307e4b7e96040518163ffffffff1660e01b815260040160006040518083038186803b158015611c8057600080fd5b505afa158015611c94573d6000803e3d6000fd5b505050506040513d6000823e601f3d908101601f19168201604052611cbc9190810190613c64565b90506000611cfc6040518060400160405280600a815260200169534944455f4d4553485f60b01b81525083468e6040516020016101d49493929190613c99565b60035460405163b5081f2d60e01b8152600481018390529192506000916001600160a01b039091169063b5081f2d9060240160206040518083038186803b158015611d4657600080fd5b505afa158015611d5a573d6000803e3d6000fd5b505050506040513d601f19601f82011682018060405250810190611d7e9190613e45565b111561210a5760005b60035460405163b5081f2d60e01b8152600481018490526001600160a01b039091169063b5081f2d9060240160206040518083038186803b158015611dcb57600080fd5b505afa158015611ddf573d6000803e3d6000fd5b505050506040513d601f19601f82011682018060405250810190611e039190613e45565b811015612108576003546040516330c3beb560e11b81526004810184905260248101839052600091611e49916001600160a01b03909116906361877d6a90604401610993565b600354604051631ade4f6b60e31b8152600481018390529192506000916001600160a01b039091169063d6f27b589060240160006040518083038186803b158015611e9357600080fd5b505afa158015611ea7573d6000803e3d6000fd5b505050506040513d6000823e601f3d908101601f19168201604052611ecf9190810190613e73565b90508060600151604051806040016040528060078152602001664e6f204c6f636b60c81b81525090611f145760405162461bcd60e51b815260040161024b9190613d11565b5060018d1415612006576003546040808301519051633ec93d5b60e21b81526001600160a01b0390921691635732a361918591849163fb24f56c91611f5c9190600401613d11565b600060405180830381600087803b158015611f7657600080fd5b505af1158015611f8a573d6000803e3d6000fd5b505050506040513d6000823e601f3d908101601f19168201604052611fb29190810190613e73565b6040518363ffffffff1660e01b8152600401611fcf929190613ff0565b600060405180830381600087803b158015611fe957600080fd5b505af1158015611ffd573d6000803e3d6000fd5b505050506120f3565b60028d14156120f3576003546020820151604051633ec93d5b60e21b81526001600160a01b0390921691635732a361918591849163fb24f56c9161204d9190600401613d11565b600060405180830381600087803b15801561206757600080fd5b505af115801561207b573d6000803e3d6000fd5b505050506040513d6000823e601f3d908101601f191682016040526120a39190810190613e73565b6040518363ffffffff1660e01b81526004016120c0929190613ff0565b600060405180830381600087803b1580156120da57600080fd5b505af11580156120ee573d6000803e3d6000fd5b505050505b5050808061210090613e2a565b915050611d87565b505b5050505050505050505050565b60008060009054906101000a90046001600160a01b03166001600160a01b03166307e4b7e96040518163ffffffff1660e01b815260040160006040518083038186803b15801561216657600080fd5b505afa15801561217a573d6000803e3d6000fd5b505050506040513d6000823e601f3d908101601f191682016040526121a29190810190613c64565b905060006121e26040518060400160405280600a815260200169534944455f4d4553485f60b01b8152508346336040516020016101d49493929190613c99565b90506121ec613390565b604080516080810182528082018a815260608083018b905290825233602080840191909152918452825190810183526001600160a01b038916815280820188905280830187905283820152600084815260078252828120600b8101548252600a0182529190912082518051805180518695859392849261226f928492019061330c565b5060209182015160019091015591820151600290910180546001600160a01b039283166001600160a01b03199182161790915584830151805160038601805491909416921691909117825580830151805191936122d49260048701929091019061330c565b50604082015180516122f0916002840191602090910190613405565b5050506040820151805161230e91600684019160209091019061330c565b5050506000828152600760205260408120600b0180549161232e83613e2a565b91905055505050505050505050565b60008060009054906101000a90046001600160a01b03166001600160a01b03166307e4b7e96040518163ffffffff1660e01b815260040160006040518083038186803b15801561238c57600080fd5b505afa1580156123a0573d6000803e3d6000fd5b505050506040513d6000823e601f3d908101601f191682016040526123c89190810190613c64565b905060006124086040518060400160405280600a815260200169534944455f4d4553485f60b01b8152508346336040516020016101d49493929190613c99565b9050612437604051806060016040528060006001600160a01b0316815260200160608152602001606081525090565b6020810184905260408051600180825281830190925290816020015b6060815260200190600190039081612453575050604082810191909152513360601b6bffffffffffffffffffffffff1916602082015261249590603401610f47565b81604001516000815181106124ac576124ac613d41565b60200260200101819052506124bf613390565b6040805160808101825280820186815246606083015281523360208083019190915290835282810184905260008581526007825291909120825180518051805186956003909501948593928492612519928492019061330c565b5060209182015160019091015591820151600290910180546001600160a01b039283166001600160a01b031991821617909155848301518051600386018054919094169216919091178255808301518051919361257e9260048701929091019061330c565b506040820151805161259a916002840191602090910190613405565b505050604082015180516125b891600684019160209091019061330c565b509050506125c4613482565b600084815260076020526040908190208151608081018352815490928391908201908390829082906125f590614068565b80601f016020809104026020016040519081016040528092919081815260200182805461262190614068565b801561266e5780601f106126435761010080835404028352916020019161266e565b820191906000526020600020905b81548152906001019060200180831161265157829003601f168201915b505050918352505060019190910154602091820152908252600292909201546001600160a01b03169101528152600060408201819052506001606082015260008481526006602090815260409091208251805180518051869585939284926126d9928492019061330c565b5060209182015160019091015591820151600290910180546001600160a01b039092166001600160a01b03199092169190911790558281015180518051805192936003860193849261272f92849291019061330c565b50602091820151600191820155920151600291820180546001600160a01b0319166001600160a01b0390921691909117905560408401516006840180549193909260ff1990921691849081111561278857612788613d2b565b021790555060609190910151600690910180549115156101000261ff001990921691909117905560035460405163e817aaa560e01b8152600481018690526000916001600160a01b03169063e817aaa59060240160206040518083038186803b1580156127f457600080fd5b505afa158015612808573d6000803e3d6000fd5b505050506040513d601f19601f8201168201806040525081019061282c9190613e45565b11156129ad5760005b60035460405163e817aaa560e01b8152600481018790526001600160a01b039091169063e817aaa59060240160206040518083038186803b15801561287957600080fd5b505afa15801561288d573d6000803e3d6000fd5b505050506040513d601f19601f820116820180604052508101906128b19190613e45565b8110156129ab5760035460405163929c216160e01b815260048101879052602481018390526001600160a01b039091169063ba70311e908790839063929c21619060440160006040518083038186803b15801561290d57600080fd5b505afa158015612921573d6000803e3d6000fd5b505050506040513d6000823e601f3d908101601f191682016040526129499190810190613c64565b6040518363ffffffff1660e01b81526004016129669291906142c5565b600060405180830381600087803b15801561298057600080fd5b505af1158015612994573d6000803e3d6000fd5b5050505080806129a390613e2a565b915050612835565b505b6129da604051806060016040528060006001600160a01b0316815260200160608152602001606081525090565b6040518060400160405280601381526020017f5175657279476c6f62616c5478537461747573000000000000000000000000008152508160200181905250612a23856001613083565b612a2e856000613083565b6000858152600760205260409081902090517f9d92c3de0c93746be18eab45d72a078bcdc93dfc71a5f6efdda54ee66957135f91612a78916003820190859060049060059061440e565b60405180910390a1612a8c6004600061345e565b612a986005600061345e565b50505050505050565b60008210156040518060600160405280602481526020016146b96024913990612add5760405162461bcd60e51b815260040161024b9190613d11565b50806000141560405180606001604052806022815260200161472e6022913990612b1a5760405162461bcd60e51b815260040161024b9190613d11565b5060008060009054906101000a90046001600160a01b03166001600160a01b03166307e4b7e96040518163ffffffff1660e01b815260040160006040518083038186803b158015612b6a57600080fd5b505afa158015612b7e573d6000803e3d6000fd5b505050506040513d6000823e601f3d908101601f19168201604052612ba69190810190613c64565b90506000612be66040518060400160405280600a815260200169534944455f4d4553485f60b01b8152508346336040516020016101d49493929190613c99565b600081815260076020908152604091829020825160808101845292830186815246606085015280845233848401528651949550909384928391612c2e918391908a019061330c565b5060209182015160019182015592015160029190910180546001600160a01b0319166001600160a01b039092169190911790556000600b8301819055600d830155600e820195909555600f8101939093555050601001805460ff19169091179055565b60008181808060025b602a811015612e7357612caf6101008561446f565b9350848181518110612cc357612cc3613d41565b016020015160f81c925084612cd982600161449e565b81518110612ce957612ce9613d41565b016020015160f81c915060616001600160a01b03841610801590612d1757506066836001600160a01b031611155b15612d2e57612d276057846144b6565b9250612d99565b6041836001600160a01b031610158015612d5257506046836001600160a01b031611155b15612d6257612d276037846144b6565b6030836001600160a01b031610158015612d8657506039836001600160a01b031611155b15612d9957612d966030846144b6565b92505b6061826001600160a01b031610158015612dbd57506066826001600160a01b031611155b15612dd457612dcd6057836144b6565b9150612e3f565b6041826001600160a01b031610158015612df857506046826001600160a01b031611155b15612e0857612dcd6037836144b6565b6030826001600160a01b031610158015612e2c57506039826001600160a01b031611155b15612e3f57612e3c6030836144b6565b91505b81612e4b84601061446f565b612e5591906144de565b612e5f90856144de565b9350612e6c60028261449e565b9050612c9a565b509195945050505050565b80516000908290829081908190819080612e9781614509565b91505060008095505b8651861015612f42576000878781518110612ebd57612ebd613d41565b016020015160f81c905060308110801590612ed9575060398111155b15612f1c57612ee9603082614520565b612ef485600a614537565b612efe919061449e565b935085612f0a81613e2a565b9650508280612f1890614509565b9350505b80602e1415612f2f576001915050612f42565b5085612f3a81613e2a565b965050612ea0565b8015612ff4576000612f5586600161449e565b90505b6012811015612ff2576000888281518110612f7557612f75613d41565b016020015160f81c905060308110801590612f91575060398111155b15612fd457612fa1603082614520565b612fac86600a614537565b612fb6919061449e565b945085612fc281613e2a565b9650508380612fd090614509565b9450505b83612fdf5750612ff2565b5080612fea81613e2a565b915050612f58565b505b601284101561303457600061300a856012614520565b9050600061301982600a61463c565b90506130258186614537565b9b9a5050505050505050505050565b5090979650505050505050565b60408051600080825260208201808452825190209092909161306591859101613df8565b60405160208183030381529060405280519060200120149050919050565b80156131cd5760005b6000838152600760205260409020600b01548110156131c8576000838152600760208181526040808420858552600a019091528220600480546001810182559352805490929091027f8a35acfbc15ff81a39ae7d344fd709f28e8600b4aa8c65c6b64bfe7fe36bd19b019082908290829082908190839061310c90614068565b6131179291906134b6565b50600191820154910155600291820154910180546001600160a01b03199081166001600160a01b039384161790915560038481018054918501805490931691909316178155600480850180549185019161317090614068565b61317b9291906134b6565b50600282810180546131909284019190613531565b50505060068201816006019080546131a790614068565b6131b29291906134b6565b50505080806131c090613e2a565b91505061308c565b505050565b60005b6000838152600760205260409020600d01548110156131c8576000838152600760208181526040808420858552600c019091528220600580546001810182559352805490929091027f036b6384b5eca791c62761152d0c79bb0604c104a5fb6f4eb0703f3154bb3db0019082908290829082908190839061325090614068565b61325b9291906134b6565b50600191820154910155600291820154910180546001600160a01b03199081166001600160a01b03938416179091556003848101805491850180549093169190931617815560048085018054918501916132b490614068565b6132bf9291906134b6565b50600282810180546132d49284019190613531565b50505060068201816006019080546132eb90614068565b6132f69291906134b6565b505050808061330490613e2a565b9150506131d0565b82805461331890614068565b90600052602060002090601f01602090048101928261333a5760008555613380565b82601f1061335357805160ff1916838001178555613380565b82800160010185558215613380579182015b82811115613380578251825591602001919060010190613365565b5061338c929150613587565b5090565b60405180606001604052806133a36133d0565b81526040805160608082018352600082526020828101829052928201529101908152602001606081525090565b60405180604001604052806133f8604051806040016040528060608152602001600081525090565b8152600060209091015290565b828054828255906000526020600020908101928215613452579160200282015b82811115613452578251805161344291849160209091019061330c565b5091602001919060010190613425565b5061338c92915061359c565b508054600082556007029060005260206000209081019061347f91906135b9565b50565b60405180608001604052806134956133d0565b81526020016134a26133d0565b815260200160008152600060209091015290565b8280546134c290614068565b90600052602060002090601f0160209004810192826134e45760008555613380565b82601f106134f55780548555613380565b8280016001018555821561338057600052602060002091601f016020900482015b82811115613380578254825591600101919060010190613516565b8280548282559060005260206000209081019282156134525760005260206000209182015b8281111561345257828290805461356c90614068565b6135779291906134b6565b5091600101919060010190613556565b5b8082111561338c5760008155600101613588565b8082111561338c5760006135b08282613637565b5060010161359c565b8082111561338c576000818181816135d18282613637565b50600060019190910181905560029290920180546001600160a01b0319908116909155600385018054909116815591905061360f6004850182613637565b61361d600283016000613671565b5061362e9050600683016000613637565b506007016135b9565b50805461364390614068565b6000825580601f10613653575050565b601f01602090049060005260206000209081019061347f9190613587565b508054600082559060005260206000209081019061347f919061359c565b6001600160a01b038116811461347f57600080fd5b634e487b7160e01b600052604160045260246000fd5b6040516080810167ffffffffffffffff811182821017156136dd576136dd6136a4565b60405290565b6040805190810167ffffffffffffffff811182821017156136dd576136dd6136a4565b604051601f8201601f1916810167ffffffffffffffff8111828210171561372f5761372f6136a4565b604052919050565b600067ffffffffffffffff821115613751576137516136a4565b5060051b60200190565b600067ffffffffffffffff821115613775576137756136a4565b50601f01601f191660200190565b600082601f83011261379457600080fd5b81356137a76137a28261375b565b613706565b8181528460208386010111156137bc57600080fd5b816020850160208301376000918101602001919091529392505050565b600082601f8301126137ea57600080fd5b813560206137fa6137a283613737565b82815260059290921b8401810191818101908684111561381957600080fd5b8286015b8481101561385957803567ffffffffffffffff81111561383d5760008081fd5b61384b8986838b0101613783565b84525091830191830161381d565b509695505050505050565b6000806040838503121561387757600080fd5b82356138828161368f565b915060208381013567ffffffffffffffff808211156138a057600080fd5b818601915086601f8301126138b457600080fd5b81356138c26137a282613737565b81815260059190911b830184019084810190898311156138e157600080fd5b8585015b83811015613919578035858111156138fd5760008081fd5b61390b8c89838a01016137d9565b8452509186019186016138e5565b508096505050505050509250929050565b60008060008060008060c0878903121561394357600080fd5b863567ffffffffffffffff8082111561395b57600080fd5b6139678a838b01613783565b975060208901359650604089013591506139808261368f565b9094506060880135906139928261368f565b909350608088013590808211156139a857600080fd5b6139b48a838b01613783565b935060a08901359150808211156139ca57600080fd5b506139d789828a01613783565b9150509295509295509295565b600080600080608085870312156139fa57600080fd5b843567ffffffffffffffff80821115613a1257600080fd5b613a1e88838901613783565b95506020870135945060408701359150613a378261368f565b90925060608601359080821115613a4d57600080fd5b50613a5a87828801613783565b91505092959194509250565b60008060008060008060c08789031215613a7f57600080fd5b8635613a8a8161368f565b955060208701359450604087013567ffffffffffffffff80821115613aae57600080fd5b613aba8a838b01613783565b95506060890135945060808901359150613ad38261368f565b90925060a088013590808211156139ca57600080fd5b600080600080600060a08688031215613b0157600080fd5b853567ffffffffffffffff80821115613b1957600080fd5b613b2589838a01613783565b96506020880135955060408801359150613b3e8261368f565b90935060608701359080821115613b5457600080fd5b613b6089838a01613783565b93506080880135915080821115613b7657600080fd5b50613b83888289016137d9565b9150509295509295909350565b600060208284031215613ba257600080fd5b813567ffffffffffffffff811115613bb957600080fd5b613bc584828501613783565b949350505050565b60008060408385031215613be057600080fd5b50508035926020909101359150565b60005b83811015613c0a578181015183820152602001613bf2565b83811115613c19576000848401525b50505050565b600082601f830112613c3057600080fd5b8151613c3e6137a28261375b565b818152846020838601011115613c5357600080fd5b613bc5826020830160208701613bef565b600060208284031215613c7657600080fd5b815167ffffffffffffffff811115613c8d57600080fd5b613bc584828501613c1f565b60008551613cab818460208a01613bef565b855190830190613cbf818360208a01613bef565b01938452505060601b6bffffffffffffffffffffffff1916602082015260340192915050565b60008151808452613cfd816020860160208601613bef565b601f01601f19169290920160200192915050565b602081526000613d246020830184613ce5565b9392505050565b634e487b7160e01b600052602160045260246000fd5b634e487b7160e01b600052603260045260246000fd5b604081526000613d6a6040830185613ce5565b90508260208301529392505050565b60008060408385031215613d8c57600080fd5b8251613d978161368f565b602084015190925067ffffffffffffffff811115613db457600080fd5b613dc085828601613c1f565b9150509250929050565b604081526000613ddd6040830185613ce5565b8281036020840152613def8185613ce5565b95945050505050565b60008251613e0a818460208701613bef565b9190910192915050565b634e487b7160e01b600052601160045260246000fd5b6000600019821415613e3e57613e3e613e14565b5060010190565b600060208284031215613e5757600080fd5b5051919050565b80518015158114613e6e57600080fd5b919050565b60006020808385031215613e8657600080fd5b825167ffffffffffffffff80821115613e9e57600080fd5b9084019060808287031215613eb257600080fd5b613eba6136ba565b825182811115613ec957600080fd5b830160408189031215613edb57600080fd5b613ee36136e3565b815184811115613ef257600080fd5b82016040818b031215613f0457600080fd5b613f0c6136e3565b815186811115613f1b57600080fd5b613f278c828501613c1f565b825250908701518782015281529085015190613f428261368f565b8086019190915281528284015182811115613f5c57600080fd5b613f6888828601613c1f565b85830152506040830151935081841115613f8157600080fd5b613f8d87858501613c1f565b6040820152613f9e60608401613e5e565b60608201529695505050505050565b60008151604084528051604080860152613fca6080860182613ce5565b6020928301516060870152938201516001600160a01b0316949091019390935250919050565b82815260406020820152600082516080604084015261401260c0840182613fad565b90506020840151603f19808584030160608601526140308383613ce5565b925060408601519150808584030160808601525061404e8282613ce5565b9150506060840151151560a0840152809150509392505050565b600181811c9082168061407c57607f821691505b6020821081141561409d57634e487b7160e01b600052602260045260246000fd5b50919050565b8054600090600181811c90808316806140bd57607f831692505b60208084108214156140df57634e487b7160e01b600052602260045260246000fd5b838852602088018280156140fa576001811461410b57614136565b60ff19871682528282019750614136565b60008981526020902060005b8781101561413057815484820152908601908401614117565b83019850505b5050505050505092915050565b60408252604080830152600061415c60808401836140a3565b600183015460608501526001600160a01b0360028401541660208501528091505092915050565b6060825260006141966060840183614143565b6020848203818601526001600160a01b0360038501541682526060818301526141c560608301600486016140a3565b60058501838203604085015281935080548083528383019450838160051b8401018260005284600020925060005b8281101561422157848203601f1901875261420e82856140a3565b96860196600194850194909250016141f3565b5088810360408a01526142378160068a016140a3565b9998505050505050505050565b600081548084526020808501808196508360051b81019150856000528260002060005b8581101561429357828403895261427e8483614183565b98850198935060079190910190600101614267565b5091979650505050505050565b6040815260006142b36040830185613fad565b8281036020840152613def8185614244565b828152604060208201526000613bc56040830184613ce5565b6001600160a01b03815116825260006020808301516060828601526143066060860182613ce5565b9050604084015185820360408701528181518084528484019150848160051b850101858401935060005b8281101561435e57601f1986830301845261434c828651613ce5565b94870194938701939150600101614330565b5098975050505050505050565b60608152600061437e6060830186613fad565b828103602084015261439081866142de565b905082810360408401528351606082526143ad6060830182613fad565b9050602085015182820360208401526143c682826142de565b915050604085015182820360408401526143e08282613ce5565b98975050505050505050565b6001600160a01b0383168152604060208201526000613bc56040830184613ce5565b60a08152600061442160a0830188614143565b82810360208401526144338188614183565b9050828103604084015261444781876142de565b9050828103606084015261445b8186614244565b905082810360808401526143e08185614244565b60006001600160a01b038083168185168183048111821515161561449557614495613e14565b02949350505050565b600082198211156144b1576144b1613e14565b500190565b60006001600160a01b03838116908316818110156144d6576144d6613e14565b039392505050565b60006001600160a01b0380831681851680830382111561450057614500613e14565b01949350505050565b60008161451857614518613e14565b506000190190565b60008282101561453257614532613e14565b500390565b600081600019048311821515161561455157614551613e14565b500290565b600181815b8085111561459157816000190482111561457757614577613e14565b8085161561458457918102915b93841c939080029061455b565b509250929050565b6000826145a857506001614636565b816145b557506000614636565b81600181146145cb57600281146145d5576145f1565b6001915050614636565b60ff8411156145e6576145e6613e14565b50506001821b614636565b5060208310610133831016604e8410600b8410161715614614575081810a614636565b61461e8383614556565b806000190482111561463257614632613e14565b0290505b92915050565b6000613d24838361459956fe446570656e64656e74207472616e73616374696f6e20726573756c7420636f756e74206e6f74206d61746368206272616e63682070726570617265207472616e73616374696f6e20636f756e744e6f7420666f756e64207072696d61727920707265706172652074782073746174757374746c486569676874206174206c65617374206f6e652073686f756c64206265207365745072696d61727920636f6e6669726d2074782070726f6f662063616e6e6f7420656d7074794475706c696361746520636f6e6669726d20676c6f62616c207472616e73616374696f6e207265717565737474746c54696d65206174206c65617374206f6e652073686f756c6420626520736574a26469706673582212201761619e43a131b249863c9695dd1d26ba673766354d19b59e599dd2f6d5bd7564736f6c63430008090033",
  "immutableReferences": {},
  "source": "// SPDX-License-Identifier: GPL-3.0\npragma solidity >=0.7.0 <0.9.0;\n\nimport \"../lib/Utils.sol\";\nimport \"../lib/Constants.sol\";\nimport \"../lib/Enums.sol\";\nimport \"../lib/Structs.sol\";\n\nimport \"../sidemesh/Sidemesh.sol\";\nimport \"../resource/Verifier.sol\";\nimport \"../resource/Register.sol\";\nimport \"../lock/LockManager.sol\";\n\ninterface IGlobalTransactionManager{\n        \n    function startGlobalTransaction(\n        uint ttlHeight,\n        uint ttlTime)\n        external;\n        \n    function registerNetworkTransaction(\n        string memory network,\n        uint chain,\n        address contractC, \n        string memory functionC, \n        string[] memory args)\n        external;\n\n    function preparePrimaryTransaction(\n        string memory functionC) \n        external;\n\n    function confirmPrimaryTransaction(\n            address primaryPrepareTxSender,\n            string[][] memory networkTxRes\n        )external;\n\n    function startNetworkTransaction(\n        string memory primaryNetwork,\n        uint primaryChain,\n        address primaryTxSender,\n        string memory primaryTxProof)\n        external;\n\n    function prepareNetworkTransaction(\n        string memory primaryNetwork,\n        uint primaryChain,\n        address primaryTxSender,\n        address globalTxQueryContract,\n        string memory globalTxQueryFunc,\n        string memory functionC)\n        external;\n    \n    function confirmNetworkTransaction(\n        address networkPrepareTxSender,\n        uint globalTxStatus,\n        string memory primaryNetwork,\n        uint primaryChain,\n        address primaryConfirmTxSender,\n        string memory primaryConfirmTxProof)\n        external;\n}\n\ncontract GlobalTransactionManager is IGlobalTransactionManager{\n    \n    ISidemesh sidemesh;\n    IVerifier verifier;\n    IRegister registry;\n    ILockManagerGlobalTransaction lockManager;\n\n    Structs.NetworkTransaction[] networkPrepareTxs;\n    Structs.NetworkTransaction[] networkConfirmTxs;\n\n    mapping(bytes32 => Structs.GlobalTransactionStatus) globalTransactionStatuses;\n    mapping(bytes32 => Structs.GlobalTransaction) globalTransactions;\n\n    constructor (\n        address _sidemesh,\n        address _registery,\n        address _verifier,\n        address _lockManager){\n            sidemesh = ISidemesh(_sidemesh);\n            registry = IRegister(_registery);\n            verifier = IVerifier(_verifier);\n            lockManager = ILockManagerGlobalTransaction(_lockManager);\n        }\n    \n    function getNetworkTxs(bytes32 xidKey, bool porc)internal{\n        if(porc){\n            for(uint i=0; i<globalTransactions[xidKey].networkPrepareTxsLength;i++){\n                networkPrepareTxs.push(globalTransactions[xidKey].networkPrepareTxs[i]);\n            }\n        }else{\n            for(uint i=0; i<globalTransactions[xidKey].networkConfirmTxsLength;i++){\n                networkConfirmTxs.push(globalTransactions[xidKey].networkConfirmTxs[i]);\n            }\n        }\n    }\n\n    function startGlobalTransaction(\n        uint ttlHeight,\n        uint ttlTime)\n        external{\n            require(ttlHeight >= 0, Constants.ERROR_TTLHEIGHT);\n            require(ttlTime != 0, Constants.ERROR_TTLTIME);\n            string memory network = sidemesh.getNetwork();\n            bytes32 xid = Utils.hash(abi.encodePacked(Constants.PREFIX, network, block.chainid, msg.sender));\n\n            Structs.GlobalTransaction storage globalTx = globalTransactions[xid];\n            globalTx.primaryPrepareTxId = Structs.TransactionID(Structs.URI(network, block.chainid), msg.sender);\n            globalTx.networkPrepareTxsLength = 0;\n            globalTx.networkConfirmTxsLength = 0;\n            globalTx.ttlHeight = ttlHeight;\n            globalTx.ttlTime = ttlTime;\n            globalTx.isValid = true;\n        }\n\n    function registerNetworkTransaction(\n        string memory network,\n        uint chain,\n        address contractC, \n        string memory functionC, \n        string[] memory args)\n        external{\n            string memory primaryNetwork = sidemesh.getNetwork();\n            bytes32 xid = Utils.hash(abi.encodePacked(Constants.PREFIX, primaryNetwork, block.chainid, msg.sender));\n\n            Structs.NetworkTransaction memory txId;\n            txId.txId = Structs.TransactionID(Structs.URI(network, chain), msg.sender);\n            txId.invocation = Structs.Invocation(contractC, functionC, args);\n\n            globalTransactions[xid].networkPrepareTxs[globalTransactions[xid].networkPrepareTxsLength] = txId;\n            globalTransactions[xid].networkPrepareTxsLength++;\n        }\n    \n    function preparePrimaryTransaction(\n        string memory functionC) \n        external{\n            string memory network = sidemesh.getNetwork();\n            bytes32 xidKey = Utils.hash(abi.encodePacked(Constants.PREFIX, network, block.chainid, msg.sender));\n            \n            Structs.Invocation memory invocation;\n            invocation.functionC = functionC;\n            invocation.args = new string[](1);\n            invocation.args[0] = Utils.toString(abi.encodePacked(msg.sender));\n            \n            Structs.NetworkTransaction memory txId;\n            txId.txId = Structs.TransactionID(Structs.URI(network, block.chainid), msg.sender);\n            txId.invocation = invocation;\n\n            globalTransactions[xidKey].primaryConfirmTx = txId;\n\n            Structs.GlobalTransactionStatus memory globalTxStatus;\n            globalTxStatus.primaryPrepareTxId = globalTransactions[xidKey].primaryPrepareTxId;\n            globalTxStatus.status = Enums.GlobalTransactionStatusType.PRIMARY_TRANSACTION_PREPARED;\n            globalTxStatus.isValid = true;\n            \n            globalTransactionStatuses[xidKey] = globalTxStatus;\n\n            if(lockManager.getWriteKeySetLength(xidKey) > 0){\n                for(uint i=0; i<lockManager.getWriteKeySetLength(xidKey); i++){\n                    lockManager.putWSet(xidKey, lockManager.getWriteKeySet(xidKey, i));\n                }\n            }\n\n            Structs.Invocation memory queryGlobalTxInvocation;\n            queryGlobalTxInvocation.functionC = Constants.QUERYGLOBALTXSTATUS;\n            \n            getNetworkTxs(xidKey, true);\n            getNetworkTxs(xidKey, false);\n\n            emit Structs.PrimaryTransactionPreparedEvent(\n                globalTransactions[xidKey].primaryPrepareTxId,\n                globalTransactions[xidKey].primaryConfirmTx,\n                queryGlobalTxInvocation,\n                networkPrepareTxs,\n                networkConfirmTxs\n                );\n            \n            delete networkPrepareTxs;\n            delete networkConfirmTxs;\n        }\n\n    function confirmPrimaryTransaction(\n            address primaryPrepareTxSender,\n            string[][] memory networkTxRes\n        )external{\n            string memory network = sidemesh.getNetwork();\n            bytes32 xidKey = Utils.hash(abi.encodePacked(Constants.PREFIX, network, block.chainid, primaryPrepareTxSender));\n\n            require(globalTransactionStatuses[xidKey].isValid, Constants.ERROR_NO_PRIMARY_TX);\n\n            require(\n                globalTransactionStatuses[xidKey].status == Enums.GlobalTransactionStatusType.PRIMARY_TRANSACTION_PREPARED,\n                Constants.ERROR_DUPLICATE_TX_STATUS);\n\n            require(globalTransactions[xidKey].isValid, Constants.ERROR_NO_GLOBAL_TX);\n\n            require(\n                globalTransactions[xidKey].networkPrepareTxsLength == networkTxRes.length,\n                Constants.ERROR_DEPENDENT_TX\n            );\n\n            uint numVerified = 0;\n            for(uint i=0;i<networkTxRes.length;i++){\n                globalTransactions[xidKey].networkPrepareTxs[i].txId.sender = Utils.toAddress(networkTxRes[i][2]);\n                globalTransactions[xidKey].networkPrepareTxs[i].proof = networkTxRes[i][3];\n\n                (address contractC, string memory functionC) = verifier.resolve(networkTxRes[i][0], Utils.toUint(networkTxRes[i][1]));\n                require(!Utils.checkAddress(contractC), Constants.ERROR_CONTRACT);\n                require(!Utils.isEmpty(functionC), Constants.ERROR_FUNCTION);\n\n                if(!Utils.isEmpty(networkTxRes[i][3])){\n                    (bool success,) = contractC.call(abi.encodeWithSignature(functionC, networkTxRes[i][2], networkTxRes[i][3]));\n                    require(success, Constants.ERROR_FAILED);\n                    numVerified++;\n                }\n            }\n            if (numVerified == globalTransactions[xidKey].networkPrepareTxsLength) {\n                globalTransactionStatuses[xidKey].status = Enums.GlobalTransactionStatusType.PRIMARY_TRANSACTION_COMMITTED;\n            } else {\n                globalTransactionStatuses[xidKey].status = Enums.GlobalTransactionStatusType.PRIMARY_TRANSACTION_CANCELED;\n            }\n            \n            \n            if(lockManager.getWSetLength(xidKey) > 0){\n                for(uint i=0; i<lockManager.getWSetLength(xidKey); i++){\n                    bytes32 hash = Utils.hash(abi.encodePacked(lockManager.getWSet(xidKey, i)));\n                    \n                    Structs.Lock memory lock = lockManager.getLock(hash);\n                    \n                    require(lock.isValid, Constants.ERROR_NO_LOCK);\n                    \n                    if(globalTransactionStatuses[xidKey].status == Enums.GlobalTransactionStatusType.PRIMARY_TRANSACTION_COMMITTED){\n                        lockManager.putLock(hash, lockManager.lockDeserializer(lock.updatingState));    \n                    }else if(globalTransactionStatuses[xidKey].status == Enums.GlobalTransactionStatusType.PRIMARY_TRANSACTION_CANCELED){\n                        lockManager.putLock(hash, lockManager.lockDeserializer(lock.prevState)); \n                    }\n                }\n            }\n            \n            for(uint i=0; i<globalTransactions[xidKey].networkPrepareTxsLength;i++){\n                Structs.NetworkTransaction memory networkConfirmTx;\n                Structs.TransactionID memory txId;\n                txId.uri = Structs.URI(\n                            globalTransactions[xidKey].networkPrepareTxs[i].txId.uri.network,\n                            globalTransactions[xidKey].networkPrepareTxs[i].txId.uri.chain);\n                networkConfirmTx.txId = txId;\n\n                Structs.Invocation memory invocation;\n                invocation.contractC = globalTransactions[xidKey].networkPrepareTxs[i].invocation.contractC;\n                invocation.functionC = globalTransactions[xidKey].networkPrepareTxs[i].invocation.functionC;\n                invocation.args = new string[](5);\n                invocation.args[0] = Utils.toString(abi.encodePacked(globalTransactions[xidKey].networkPrepareTxs[i].txId.sender));\n                invocation.args[1] = Utils.toString(abi.encodePacked(uint(globalTransactionStatuses[xidKey].status)));\n                invocation.args[2] = network;\n                invocation.args[3] = Utils.toString(abi.encodePacked(block.chainid));\n                invocation.args[4] = Utils.toString(abi.encodePacked(msg.sender));\n\n                networkConfirmTx.invocation = invocation;\n\n                globalTransactions[xidKey].networkConfirmTxs[globalTransactions[xidKey].networkConfirmTxsLength] = networkConfirmTx;\n                globalTransactions[xidKey].networkConfirmTxsLength++;\n            }\n\n            getNetworkTxs(xidKey, false);\n\n            emit Structs.PrimaryTransactionConfirmedEvent(\n                Structs.TransactionID(Structs.URI(network, block.chainid), msg.sender),\n                networkConfirmTxs\n            );\n            delete networkConfirmTxs;\n        }\n\n    function startNetworkTransaction(\n        string memory primaryNetwork,\n        uint primaryChain,\n        address primaryTxSender,\n        string memory primaryTxProof)\n        external{\n            require(!Utils.isEmpty(primaryTxProof), Constants.ERROR_PRIMARYTXPROOF);\n            (address contractC, string memory functionC) = verifier.resolve(primaryNetwork, primaryChain);\n            require(!Utils.checkAddress(contractC), Constants.ERROR_CONTRACT);\n            require(!Utils.isEmpty(functionC), Constants.ERROR_FUNCTION);\n\n            (bool success,) = contractC.call(abi.encodeWithSignature(functionC, primaryTxSender, primaryTxProof));\n            require(success, Constants.ERROR_FAILED);\n        }\n    \n    function prepareNetworkTransaction(\n        string memory primaryNetwork,\n        uint primaryChain,\n        address primaryTxSender,\n        address globalTxQueryContract,\n        string memory globalTxQueryFunc,\n        string memory functionC)\n        external{\n            string memory network = sidemesh.getNetwork();\n            \n            Structs.TransactionID memory globalTxId = Structs.TransactionID(Structs.URI(primaryNetwork, primaryChain), primaryTxSender);\n            Structs.Invocation memory globalTxQuery = Structs.Invocation(globalTxQueryContract, globalTxQueryFunc, new string[](1));\n            globalTxQuery.args[0] = string(abi.encodePacked(primaryTxSender));\n\n            bytes32 bidKey = Utils.hash(abi.encodePacked(Constants.PREFIX, network, block.chainid, msg.sender));\n            if(lockManager.getWriteKeySetLength(bidKey) > 0){\n                for(uint i=0; i<lockManager.getWriteKeySetLength(bidKey); i++){\n                    lockManager.putWSet(bidKey, lockManager.getWriteKeySet(bidKey, i));\n                }\n            }\n            \n            Structs.Invocation memory invocation;\n            invocation.functionC = functionC;\n            invocation.args = new string[](1);\n            invocation.args[0] = Utils.toString(abi.encodePacked(msg.sender));\n            \n            Structs.NetworkTransaction memory networkConfirmTx;\n            networkConfirmTx.txId = Structs.TransactionID(Structs.URI(network, block.chainid), msg.sender);\n            networkConfirmTx.invocation = invocation;\n\n            emit Structs.NetworkTransactionPreparedEvent(\n                globalTxId,\n                globalTxQuery,\n                networkConfirmTx\n                );\n        }\n\n    function confirmNetworkTransaction(\n        address networkPrepareTxSender,\n        uint globalTxStatus,\n        string memory primaryNetwork,\n        uint primaryChain,\n        address primaryConfirmTxSender,\n        string memory primaryConfirmTxProof)\n        external{\n            (address contractC, string memory functionC) = verifier.resolve(primaryNetwork, primaryChain);\n            require(!Utils.checkAddress(contractC), Constants.ERROR_CONTRACT);\n            require(!Utils.isEmpty(functionC), Constants.ERROR_FUNCTION);\n\n            require(!Utils.isEmpty(primaryConfirmTxProof), Constants.ERROR_NO_PRIMARY_CONFIRM_TX_PROOF);\n\n            (bool success,) = contractC.call(abi.encodeWithSignature(functionC, primaryConfirmTxSender, primaryConfirmTxProof));\n            require(success, Constants.ERROR_NO_PRIMARY_CONFIRM_TX);\n\n            string memory network = sidemesh.getNetwork();\n            bytes32 bidKey = Utils.hash(abi.encodePacked(Constants.PREFIX, network, block.chainid, networkPrepareTxSender));\n\n            if(lockManager.getWSetLength(bidKey) > 0){\n                for(uint i=0; i<lockManager.getWSetLength(bidKey); i++){\n                    bytes32 hash = Utils.hash(abi.encodePacked(lockManager.getWSet(bidKey, i)));\n\n                    Structs.Lock memory lock = lockManager.getLock(hash);\n\n                    require(lock.isValid, Constants.ERROR_NO_LOCK);\n                    \n                    if(globalTxStatus == uint(Enums.GlobalTransactionStatusType.PRIMARY_TRANSACTION_COMMITTED)){\n                        lockManager.putLock(hash, lockManager.lockDeserializer(lock.updatingState));    \n                    }else if(globalTxStatus == uint(Enums.GlobalTransactionStatusType.PRIMARY_TRANSACTION_CANCELED)){\n                        lockManager.putLock(hash, lockManager.lockDeserializer(lock.prevState)); \n                    }\n                }\n            }\n    }\n}",
  "sourcePath": "/home/rxshri99/WebProjects/sidecar-contract-kit/sidemesh-solidity/contracts/transaction/GlobalTransactionManager.sol",
  "compiler": {
    "name": "solc",
    "version": "0.8.9+commit.e5eed63a.Emscripten.clang"
  },
  "schemaVersion": "3.4.1",
  "updatedAt": "2021-11-13T07:54:06.459Z",
  "devdoc": {
    "kind": "dev",
    "methods": {},
    "version": 1
  },
  "userdoc": {
    "kind": "user",
    "methods": {},
    "version": 1
  }
}