{
  "contractName": "GlobalTransactionManager",
  "abi": [
    {
      "inputs": [
        {
          "internalType": "address",
          "name": "_sidemesh",
          "type": "address"
        },
        {
          "internalType": "address",
          "name": "_registery",
          "type": "address"
        },
        {
          "internalType": "address",
          "name": "_verifier",
          "type": "address"
        },
        {
          "internalType": "address",
          "name": "_lockManager",
          "type": "address"
        }
      ],
      "stateMutability": "nonpayable",
      "type": "constructor"
    },
    {
      "inputs": [
        {
          "internalType": "uint256",
          "name": "ttlHeight",
          "type": "uint256"
        },
        {
          "internalType": "uint256",
          "name": "ttlTime",
          "type": "uint256"
        }
      ],
      "name": "startGlobalTransaction",
      "outputs": [],
      "stateMutability": "nonpayable",
      "type": "function"
    },
    {
      "inputs": [
        {
          "internalType": "string",
          "name": "network",
          "type": "string"
        },
        {
          "internalType": "uint256",
          "name": "chain",
          "type": "uint256"
        },
        {
          "internalType": "address",
          "name": "contractC",
          "type": "address"
        },
        {
          "internalType": "string",
          "name": "functionC",
          "type": "string"
        },
        {
          "internalType": "string[]",
          "name": "args",
          "type": "string[]"
        }
      ],
      "name": "registerNetworkTransaction",
      "outputs": [],
      "stateMutability": "nonpayable",
      "type": "function"
    },
    {
      "inputs": [
        {
          "internalType": "string",
          "name": "functionC",
          "type": "string"
        }
      ],
      "name": "preparePrimaryTransaction",
      "outputs": [],
      "stateMutability": "nonpayable",
      "type": "function"
    },
    {
      "inputs": [
        {
          "internalType": "address",
          "name": "primaryPrepareTxSender",
          "type": "address"
        },
        {
          "internalType": "string[][]",
          "name": "networkTxRes",
          "type": "string[][]"
        }
      ],
      "name": "confirmPrimaryTransaction",
      "outputs": [],
      "stateMutability": "nonpayable",
      "type": "function"
    },
    {
      "inputs": [
        {
          "internalType": "string",
          "name": "primaryNetwork",
          "type": "string"
        },
        {
          "internalType": "uint256",
          "name": "primaryChain",
          "type": "uint256"
        },
        {
          "internalType": "string",
          "name": "primaryTxID",
          "type": "string"
        },
        {
          "internalType": "string",
          "name": "primaryTxProof",
          "type": "string"
        }
      ],
      "name": "startNetworkTransaction",
      "outputs": [],
      "stateMutability": "nonpayable",
      "type": "function"
    },
    {
      "inputs": [
        {
          "internalType": "string",
          "name": "primaryNetwork",
          "type": "string"
        },
        {
          "internalType": "uint256",
          "name": "primaryChain",
          "type": "uint256"
        },
        {
          "internalType": "address",
          "name": "primaryTxSender",
          "type": "address"
        },
        {
          "internalType": "address",
          "name": "globalTxQueryContract",
          "type": "address"
        },
        {
          "internalType": "string",
          "name": "globalTxQueryFunc",
          "type": "string"
        },
        {
          "internalType": "string",
          "name": "functionC",
          "type": "string"
        }
      ],
      "name": "prepareNetworkTransaction",
      "outputs": [],
      "stateMutability": "nonpayable",
      "type": "function"
    },
    {
      "inputs": [
        {
          "internalType": "address",
          "name": "networkPrepareTxSender",
          "type": "address"
        },
        {
          "internalType": "uint256",
          "name": "globalTxStatus",
          "type": "uint256"
        },
        {
          "internalType": "string",
          "name": "primaryNetwork",
          "type": "string"
        },
        {
          "internalType": "uint256",
          "name": "primaryChain",
          "type": "uint256"
        },
        {
          "internalType": "address",
          "name": "primaryConfirmTxSender",
          "type": "address"
        },
        {
          "internalType": "string",
          "name": "primaryConfirmTxProof",
          "type": "string"
        }
      ],
      "name": "confirmNetworkTransaction",
      "outputs": [],
      "stateMutability": "nonpayable",
      "type": "function"
    }
  ],
  "bytecode": "0x60806040523480156200001157600080fd5b50604051620048a7380380620048a78339810160408190526200003491620000a5565b600080546001600160a01b039586166001600160a01b031991821617909155600280549486169482169490941790935560018054928516928416929092179091556003805491909316911617905562000102565b80516001600160a01b0381168114620000a057600080fd5b919050565b60008060008060808587031215620000bc57600080fd5b620000c78562000088565b9350620000d76020860162000088565b9250620000e76040860162000088565b9150620000f76060860162000088565b905092959194509250565b61479580620001126000396000f3fe608060405234801561001057600080fd5b506004361061007d5760003560e01c80638cbaefda1161005b5780638cbaefda146100bd5780639ce27542146100d0578063aaba5b4b146100e3578063ea71adfd146100f657600080fd5b806316b41747146100825780634eff7c46146100975780635d5974ca146100aa575b600080fd5b610095610090366004613864565b610109565b005b6100956100a536600461392a565b611216565b6100956100b83660046139e4565b6116d3565b6100956100cb366004613a67565b611e55565b6100956100de366004613b0e565b61207b565b6100956100f1366004613b4b565b6127df565b610095610104366004613bdd565b612aa1565b60008060009054906101000a90046001600160a01b03166001600160a01b03166307e4b7e96040518163ffffffff1660e01b815260040160006040518083038186803b15801561015857600080fd5b505afa15801561016c573d6000803e3d6000fd5b505050506040513d6000823e601f3d908101601f191682016040526101949190810190613c74565b905060006101ee6040518060400160405280600a815260200169534944455f4d4553485f60b01b8152508346876040516020016101d49493929190613ca9565b604051602081830303815290604052805160209091012090565b90506006600082815260200190815260200160002060060160019054906101000a900460ff166040518060600160405280602381526020016146a660239139906102545760405162461bcd60e51b815260040161024b9190613d21565b60405180910390fd5b5060008181526006602081905260408220015460ff16600281111561027b5761027b613d3b565b146040518060600160405280602c8152602001614712602c9139906102b35760405162461bcd60e51b815260040161024b9190613d21565b50600081815260076020908152604091829020601001548251808401909352601383527f4e6f7420666f756e6420676c6f62616c207478000000000000000000000000009183019190915260ff1661031e5760405162461bcd60e51b815260040161024b9190613d21565b50825160076000838152602001908152602001600020600b0154146040518060800160405280604d8152602001614659604d9139906103705760405162461bcd60e51b815260040161024b9190613d21565b506000805b84518110156107f5576103ba85828151811061039357610393613d51565b60200260200101516002815181106103ad576103ad613d51565b6020026020010151612c91565b6000848152600760209081526040808320858452600a01909152902060020180546001600160a01b0319166001600160a01b0392909216919091179055845185908290811061040b5761040b613d51565b602002602001015160038151811061042557610425613d51565b6020908102919091018101516000858152600783526040808220858352600a0184529020815161045e936006909201929091019061330c565b50600154855160009182916001600160a01b039091169063f9c2af869089908690811061048d5761048d613d51565b60200260200101516000815181106104a7576104a7613d51565b60200260200101516104eb8a87815181106104c4576104c4613d51565b60200260200101516001815181106104de576104de613d51565b6020026020010151612e7e565b6040518363ffffffff1660e01b8152600401610508929190613d67565b60006040518083038186803b15801561052057600080fd5b505afa158015610534573d6000803e3d6000fd5b505050506040513d6000823e601f3d908101601f1916820160405261055c9190810190613d89565b91509150610568600190565b1560405180604001604052806011815260200170436f6e747261637420697320656d70747960781b815250906105b15760405162461bcd60e51b815260040161024b9190613d21565b506105bb81613041565b156040518060400160405280601181526020017046756e6374696f6e20697320656d70747960781b815250906106045760405162461bcd60e51b815260040161024b9190613d21565b5061064187848151811061061a5761061a613d51565b602002602001015160038151811061063457610634613d51565b6020026020010151613041565b6107e0576000826001600160a01b03168289868151811061066457610664613d51565b602002602001015160028151811061067e5761067e613d51565b60200260200101518a878151811061069857610698613d51565b60200260200101516003815181106106b2576106b2613d51565b60200260200101516040516024016106cb929190613dda565b60408051601f1981840301815290829052916106e691613e08565b60408051918290039091206020830180516001600160e01b03167fffffffff00000000000000000000000000000000000000000000000000000000909216919091179052516107359190613e08565b6000604051808303816000865af19150503d8060008114610772576040519150601f19603f3d011682016040523d82523d6000602084013e610777565b606091505b50509050806040518060400160405280601881526020017f5072696d61727920747820766572696679206661696c65640000000000000000815250906107d05760405162461bcd60e51b815260040161024b9190613d21565b50846107db81613e3a565b955050505b505080806107ed90613e3a565b915050610375565b506000828152600760205260409020600b015481141561083157600082815260066020819052604090912001805460ff1916600117905561084f565b600082815260066020819052604090912001805460ff191660021790555b60035460405163b5081f2d60e01b8152600481018490526000916001600160a01b03169063b5081f2d9060240160206040518083038186803b15801561089457600080fd5b505afa1580156108a8573d6000803e3d6000fd5b505050506040513d601f19601f820116820180604052508101906108cc9190613e55565b1115610d045760005b60035460405163b5081f2d60e01b8152600481018590526001600160a01b039091169063b5081f2d9060240160206040518083038186803b15801561091957600080fd5b505afa15801561092d573d6000803e3d6000fd5b505050506040513d601f19601f820116820180604052508101906109519190613e55565b811015610d02576003546040516330c3beb560e11b815260048101859052602481018390526000916109f7916001600160a01b03909116906361877d6a906044015b60006040518083038186803b1580156109ab57600080fd5b505afa1580156109bf573d6000803e3d6000fd5b505050506040513d6000823e601f3d908101601f191682016040526109e79190810190613c74565b6040516020016101d49190613e08565b600354604051631ade4f6b60e31b8152600481018390529192506000916001600160a01b039091169063d6f27b589060240160006040518083038186803b158015610a4157600080fd5b505afa158015610a55573d6000803e3d6000fd5b505050506040513d6000823e601f3d908101601f19168201604052610a7d9190810190613e83565b90508060600151604051806040016040528060078152602001664e6f204c6f636b60c81b81525090610ac25760405162461bcd60e51b815260040161024b9190613d21565b5060016000868152600660208190526040909120015460ff166002811115610aec57610aec613d3b565b1415610bda576003546040808301519051633ec93d5b60e21b81526001600160a01b0390921691635732a361918591849163fb24f56c91610b309190600401613d21565b600060405180830381600087803b158015610b4a57600080fd5b505af1158015610b5e573d6000803e3d6000fd5b505050506040513d6000823e601f3d908101601f19168201604052610b869190810190613e83565b6040518363ffffffff1660e01b8152600401610ba3929190614000565b600060405180830381600087803b158015610bbd57600080fd5b505af1158015610bd1573d6000803e3d6000fd5b50505050610ced565b60026000868152600660208190526040909120015460ff166002811115610c0357610c03613d3b565b1415610ced576003546020820151604051633ec93d5b60e21b81526001600160a01b0390921691635732a361918591849163fb24f56c91610c479190600401613d21565b600060405180830381600087803b158015610c6157600080fd5b505af1158015610c75573d6000803e3d6000fd5b505050506040513d6000823e601f3d908101601f19168201604052610c9d9190810190613e83565b6040518363ffffffff1660e01b8152600401610cba929190614000565b600060405180830381600087803b158015610cd457600080fd5b505af1158015610ce8573d6000803e3d6000fd5b505050505b50508080610cfa90613e3a565b9150506108d5565b505b60005b6000838152600760205260409020600b01548110156111a157610d28613390565b610d306133d0565b604080518082018252600087815260076020908152838220878352600a019052919091208054829190610d6290614078565b80601f0160208091040260200160405190810160405280929190818152602001828054610d8e90614078565b8015610ddb5780601f10610db057610100808354040283529160200191610ddb565b820191906000526020600020905b815481529060010190602001808311610dbe57829003601f168201915b50505091835250506000878152600760209081526040808320888452600a018083528184206001810154958401959095529486528587528051606080820183528184018190529181019190915260038401546001600160a01b0316815291879052929092526004018054610e4e90614078565b80601f0160208091040260200160405190810160405280929190818152602001828054610e7a90614078565b8015610ec75780601f10610e9c57610100808354040283529160200191610ec7565b820191906000526020600020905b815481529060010190602001808311610eaa57829003601f168201915b5050505050602082015260408051600580825260c0820190925290816020015b6060815260200190600190039081610ee757905050604082810191909152600087815260076020908152828220878352600a0181529082902060020154915160609290921b6bffffffffffffffffffffffff191690820152610f59906034015b60405160208183030381529060405290565b8160400151600081518110610f7057610f70613d51565b6020908102919091018101919091526000878152600691829052604090200154610fba9060ff166002811115610fa857610fa8613d3b565b604051602001610f4791815260200190565b8160400151600181518110610fd157610fd1613d51565b6020026020010181905250868160400151600281518110610ff457610ff4613d51565b602002602001018190525061101546604051602001610f4791815260200190565b816040015160038151811061102c5761102c613d51565b602002602001018190525061106333604051602001610f47919060609190911b6bffffffffffffffffffffffff1916815260140190565b816040015160048151811061107a5761107a613d51565b6020908102919091018101919091528381018290526000878152600782526040808220600d8101548352600c01835290208451805180518051889585939284926110c7928492019061330c565b5060209182015160019091015591820151600290910180546001600160a01b039283166001600160a01b031991821617909155848301518051600386018054919094169216919091178255808301518051919361112c9260048701929091019061330c565b5060408201518051611148916002840191602090910190613405565b5050506040820151805161116691600684019160209091019061330c565b5050506000868152600760205260408120600d0180549161118683613e3a565b9190505550505050808061119990613e3a565b915050610d07565b506111ad826000613083565b60408051608081018252808201858152466060830152815233602082015290517f171c9332e85593b9115f9eecd2bf8a7317c4d2950df4cfc988aa60fb5ca77749916111fb916005906142b0565b60405180910390a161120f6005600061345e565b5050505050565b60008060009054906101000a90046001600160a01b03166001600160a01b03166307e4b7e96040518163ffffffff1660e01b815260040160006040518083038186803b15801561126557600080fd5b505afa158015611279573d6000803e3d6000fd5b505050506040513d6000823e601f3d908101601f191682016040526112a19190810190613c74565b604080516080810182528082018a815260608083018b90529082526001600160a01b038981166020808501919091528451928301855290891682528101879052825160018082528185018552949550919360009391929183019190816020015b60608152602001906001900390816113015790505090526040516bffffffffffffffffffffffff1960608a901b166020820152909150603401604051602081830303815290604052816040015160008151811061136057611360613d51565b602002602001018190525060006113a96040518060400160405280600a815260200169534944455f4d4553485f60b01b8152508546336040516020016101d49493929190613ca9565b60035460405163e817aaa560e01b8152600481018390529192506000916001600160a01b039091169063e817aaa59060240160206040518083038186803b1580156113f357600080fd5b505afa158015611407573d6000803e3d6000fd5b505050506040513d601f19601f8201168201806040525081019061142b9190613e55565b11156115ac5760005b60035460405163e817aaa560e01b8152600481018490526001600160a01b039091169063e817aaa59060240160206040518083038186803b15801561147857600080fd5b505afa15801561148c573d6000803e3d6000fd5b505050506040513d601f19601f820116820180604052508101906114b09190613e55565b8110156115aa5760035460405163929c216160e01b815260048101849052602481018390526001600160a01b039091169063ba70311e908490839063929c21619060440160006040518083038186803b15801561150c57600080fd5b505afa158015611520573d6000803e3d6000fd5b505050506040513d6000823e601f3d908101601f191682016040526115489190810190613c74565b6040518363ffffffff1660e01b81526004016115659291906142d5565b600060405180830381600087803b15801561157f57600080fd5b505af1158015611593573d6000803e3d6000fd5b5050505080806115a290613e3a565b915050611434565b505b6115d9604051806060016040528060006001600160a01b0316815260200160608152602001606081525090565b6020810186905260408051600180825281830190925290816020015b60608152602001906001900390816115f5575050604082810191909152513360601b6bffffffffffffffffffffffff1916602082015261163790603401610f47565b816040015160008151811061164e5761164e613d51565b6020026020010181905250611661613390565b604080516080810182528082018881524660608301528152336020808301919091529083528201839052517fbca3655a364f084c5bf278eace9ff0700996e453132a72b1bf93003a7ede0d36906116bd9087908790859061437b565b60405180910390a1505050505050505050505050565b600154604051637ce157c360e11b815260009182916001600160a01b039091169063f9c2af869061170a9089908990600401613d67565b60006040518083038186803b15801561172257600080fd5b505afa158015611736573d6000803e3d6000fd5b505050506040513d6000823e601f3d908101601f1916820160405261175e9190810190613d89565b9150915061176a600190565b1560405180604001604052806011815260200170436f6e747261637420697320656d70747960781b815250906117b35760405162461bcd60e51b815260040161024b9190613d21565b506117bd81613041565b156040518060400160405280601181526020017046756e6374696f6e20697320656d70747960781b815250906118065760405162461bcd60e51b815260040161024b9190613d21565b5061181083613041565b156040518060600160405280602581526020016146ed60259139906118485760405162461bcd60e51b815260040161024b9190613d21565b506000826001600160a01b03168286866040516024016118699291906143fc565b60408051601f19818403018152908290529161188491613e08565b60408051918290039091206020830180516001600160e01b03167fffffffff00000000000000000000000000000000000000000000000000000000909216919091179052516118d39190613e08565b6000604051808303816000865af19150503d8060008114611910576040519150601f19603f3d011682016040523d82523d6000602084013e611915565b606091505b50509050806040518060400160405280602081526020017f5072696d61727920636f6e6669726d20747820766572696679206661696c65648152509061196e5760405162461bcd60e51b815260040161024b9190613d21565b5060008060009054906101000a90046001600160a01b03166001600160a01b03166307e4b7e96040518163ffffffff1660e01b815260040160006040518083038186803b1580156119be57600080fd5b505afa1580156119d2573d6000803e3d6000fd5b505050506040513d6000823e601f3d908101601f191682016040526119fa9190810190613c74565b90506000611a3a6040518060400160405280600a815260200169534944455f4d4553485f60b01b81525083468e6040516020016101d49493929190613ca9565b60035460405163b5081f2d60e01b8152600481018390529192506000916001600160a01b039091169063b5081f2d9060240160206040518083038186803b158015611a8457600080fd5b505afa158015611a98573d6000803e3d6000fd5b505050506040513d601f19601f82011682018060405250810190611abc9190613e55565b1115611e485760005b60035460405163b5081f2d60e01b8152600481018490526001600160a01b039091169063b5081f2d9060240160206040518083038186803b158015611b0957600080fd5b505afa158015611b1d573d6000803e3d6000fd5b505050506040513d601f19601f82011682018060405250810190611b419190613e55565b811015611e46576003546040516330c3beb560e11b81526004810184905260248101839052600091611b87916001600160a01b03909116906361877d6a90604401610993565b600354604051631ade4f6b60e31b8152600481018390529192506000916001600160a01b039091169063d6f27b589060240160006040518083038186803b158015611bd157600080fd5b505afa158015611be5573d6000803e3d6000fd5b505050506040513d6000823e601f3d908101601f19168201604052611c0d9190810190613e83565b90508060600151604051806040016040528060078152602001664e6f204c6f636b60c81b81525090611c525760405162461bcd60e51b815260040161024b9190613d21565b5060018d1415611d44576003546040808301519051633ec93d5b60e21b81526001600160a01b0390921691635732a361918591849163fb24f56c91611c9a9190600401613d21565b600060405180830381600087803b158015611cb457600080fd5b505af1158015611cc8573d6000803e3d6000fd5b505050506040513d6000823e601f3d908101601f19168201604052611cf09190810190613e83565b6040518363ffffffff1660e01b8152600401611d0d929190614000565b600060405180830381600087803b158015611d2757600080fd5b505af1158015611d3b573d6000803e3d6000fd5b50505050611e31565b60028d1415611e31576003546020820151604051633ec93d5b60e21b81526001600160a01b0390921691635732a361918591849163fb24f56c91611d8b9190600401613d21565b600060405180830381600087803b158015611da557600080fd5b505af1158015611db9573d6000803e3d6000fd5b505050506040513d6000823e601f3d908101601f19168201604052611de19190810190613e83565b6040518363ffffffff1660e01b8152600401611dfe929190614000565b600060405180830381600087803b158015611e1857600080fd5b505af1158015611e2c573d6000803e3d6000fd5b505050505b50508080611e3e90613e3a565b915050611ac5565b505b5050505050505050505050565b60008060009054906101000a90046001600160a01b03166001600160a01b03166307e4b7e96040518163ffffffff1660e01b815260040160006040518083038186803b158015611ea457600080fd5b505afa158015611eb8573d6000803e3d6000fd5b505050506040513d6000823e601f3d908101601f19168201604052611ee09190810190613c74565b90506000611f206040518060400160405280600a815260200169534944455f4d4553485f60b01b8152508346336040516020016101d49493929190613ca9565b9050611f2a613390565b604080516080810182528082018a815260608083018b905290825233602080840191909152918452825190810183526001600160a01b038916815280820188905280830187905283820152600084815260078252828120600b8101548252600a01825291909120825180518051805186958593928492611fad928492019061330c565b5060209182015160019091015591820151600290910180546001600160a01b039283166001600160a01b03199182161790915584830151805160038601805491909416921691909117825580830151805191936120129260048701929091019061330c565b506040820151805161202e916002840191602090910190613405565b5050506040820151805161204c91600684019160209091019061330c565b5050506000828152600760205260408120600b0180549161206c83613e3a565b91905055505050505050505050565b60008060009054906101000a90046001600160a01b03166001600160a01b03166307e4b7e96040518163ffffffff1660e01b815260040160006040518083038186803b1580156120ca57600080fd5b505afa1580156120de573d6000803e3d6000fd5b505050506040513d6000823e601f3d908101601f191682016040526121069190810190613c74565b905060006121466040518060400160405280600a815260200169534944455f4d4553485f60b01b8152508346336040516020016101d49493929190613ca9565b9050612175604051806060016040528060006001600160a01b0316815260200160608152602001606081525090565b6020810184905260408051600180825281830190925290816020015b6060815260200190600190039081612191575050604082810191909152513360601b6bffffffffffffffffffffffff191660208201526121d390603401610f47565b81604001516000815181106121ea576121ea613d51565b60200260200101819052506121fd613390565b6040805160808101825280820186815246606083015281523360208083019190915290835282810184905260008581526007825291909120825180518051805186956003909501948593928492612257928492019061330c565b5060209182015160019091015591820151600290910180546001600160a01b039283166001600160a01b03199182161790915584830151805160038601805491909416921691909117825580830151805191936122bc9260048701929091019061330c565b50604082015180516122d8916002840191602090910190613405565b505050604082015180516122f691600684019160209091019061330c565b50905050612302613482565b6000848152600760205260409081902081516080810183528154909283919082019083908290829061233390614078565b80601f016020809104026020016040519081016040528092919081815260200182805461235f90614078565b80156123ac5780601f10612381576101008083540402835291602001916123ac565b820191906000526020600020905b81548152906001019060200180831161238f57829003601f168201915b505050918352505060019190910154602091820152908252600292909201546001600160a01b0316910152815260006040820181905250600160608201526000848152600660209081526040909120825180518051805186958593928492612417928492019061330c565b5060209182015160019091015591820151600290910180546001600160a01b039092166001600160a01b03199092169190911790558281015180518051805192936003860193849261246d92849291019061330c565b50602091820151600191820155920151600291820180546001600160a01b0319166001600160a01b0390921691909117905560408401516006840180549193909260ff199092169184908111156124c6576124c6613d3b565b021790555060609190910151600690910180549115156101000261ff001990921691909117905560035460405163e817aaa560e01b8152600481018690526000916001600160a01b03169063e817aaa59060240160206040518083038186803b15801561253257600080fd5b505afa158015612546573d6000803e3d6000fd5b505050506040513d601f19601f8201168201806040525081019061256a9190613e55565b11156126eb5760005b60035460405163e817aaa560e01b8152600481018790526001600160a01b039091169063e817aaa59060240160206040518083038186803b1580156125b757600080fd5b505afa1580156125cb573d6000803e3d6000fd5b505050506040513d601f19601f820116820180604052508101906125ef9190613e55565b8110156126e95760035460405163929c216160e01b815260048101879052602481018390526001600160a01b039091169063ba70311e908790839063929c21619060440160006040518083038186803b15801561264b57600080fd5b505afa15801561265f573d6000803e3d6000fd5b505050506040513d6000823e601f3d908101601f191682016040526126879190810190613c74565b6040518363ffffffff1660e01b81526004016126a49291906142d5565b600060405180830381600087803b1580156126be57600080fd5b505af11580156126d2573d6000803e3d6000fd5b5050505080806126e190613e3a565b915050612573565b505b612718604051806060016040528060006001600160a01b0316815260200160608152602001606081525090565b6040518060400160405280601381526020017f5175657279476c6f62616c5478537461747573000000000000000000000000008152508160200181905250612761856001613083565b61276c856000613083565b6000858152600760205260409081902090517f9d92c3de0c93746be18eab45d72a078bcdc93dfc71a5f6efdda54ee66957135f916127b6916003820190859060049060059061441e565b60405180910390a16127ca6004600061345e565b6127d66005600061345e565b50505050505050565b6127e881613041565b156040518060400160405280601581526020017f4e656564207072696d6172792074782070726f6f6600000000000000000000008152509061283d5760405162461bcd60e51b815260040161024b9190613d21565b50600154604051637ce157c360e11b815260009182916001600160a01b039091169063f9c2af86906128759089908990600401613d67565b60006040518083038186803b15801561288d57600080fd5b505afa1580156128a1573d6000803e3d6000fd5b505050506040513d6000823e601f3d908101601f191682016040526128c99190810190613d89565b915091506128d5600190565b1560405180604001604052806011815260200170436f6e747261637420697320656d70747960781b8152509061291e5760405162461bcd60e51b815260040161024b9190613d21565b5061292881613041565b156040518060400160405280601181526020017046756e6374696f6e20697320656d70747960781b815250906129715760405162461bcd60e51b815260040161024b9190613d21565b506000826001600160a01b0316828686604051602401612992929190613dda565b60408051601f1981840301815290829052916129ad91613e08565b60408051918290039091206020830180516001600160e01b03167fffffffff00000000000000000000000000000000000000000000000000000000909216919091179052516129fc9190613e08565b6000604051808303816000865af19150503d8060008114612a39576040519150601f19603f3d011682016040523d82523d6000602084013e612a3e565b606091505b50509050806040518060400160405280601881526020017f5072696d61727920747820766572696679206661696c6564000000000000000081525090612a975760405162461bcd60e51b815260040161024b9190613d21565b5050505050505050565b60008210156040518060600160405280602481526020016146c96024913990612add5760405162461bcd60e51b815260040161024b9190613d21565b50806000141560405180606001604052806022815260200161473e6022913990612b1a5760405162461bcd60e51b815260040161024b9190613d21565b5060008060009054906101000a90046001600160a01b03166001600160a01b03166307e4b7e96040518163ffffffff1660e01b815260040160006040518083038186803b158015612b6a57600080fd5b505afa158015612b7e573d6000803e3d6000fd5b505050506040513d6000823e601f3d908101601f19168201604052612ba69190810190613c74565b90506000612be66040518060400160405280600a815260200169534944455f4d4553485f60b01b8152508346336040516020016101d49493929190613ca9565b600081815260076020908152604091829020825160808101845292830186815246606085015280845233848401528651949550909384928391612c2e918391908a019061330c565b5060209182015160019182015592015160029190910180546001600160a01b0319166001600160a01b039092169190911790556000600b8301819055600d830155600e820195909555600f8101939093555050601001805460ff19169091179055565b60008181808060025b602a811015612e7357612caf6101008561447f565b9350848181518110612cc357612cc3613d51565b016020015160f81c925084612cd98260016144ae565b81518110612ce957612ce9613d51565b016020015160f81c915060616001600160a01b03841610801590612d1757506066836001600160a01b031611155b15612d2e57612d276057846144c6565b9250612d99565b6041836001600160a01b031610158015612d5257506046836001600160a01b031611155b15612d6257612d276037846144c6565b6030836001600160a01b031610158015612d8657506039836001600160a01b031611155b15612d9957612d966030846144c6565b92505b6061826001600160a01b031610158015612dbd57506066826001600160a01b031611155b15612dd457612dcd6057836144c6565b9150612e3f565b6041826001600160a01b031610158015612df857506046826001600160a01b031611155b15612e0857612dcd6037836144c6565b6030826001600160a01b031610158015612e2c57506039826001600160a01b031611155b15612e3f57612e3c6030836144c6565b91505b81612e4b84601061447f565b612e5591906144ee565b612e5f90856144ee565b9350612e6c6002826144ae565b9050612c9a565b509195945050505050565b80516000908290829081908190819080612e9781614519565b91505060008095505b8651861015612f42576000878781518110612ebd57612ebd613d51565b016020015160f81c905060308110801590612ed9575060398111155b15612f1c57612ee9603082614530565b612ef485600a614547565b612efe91906144ae565b935085612f0a81613e3a565b9650508280612f1890614519565b9350505b80602e1415612f2f576001915050612f42565b5085612f3a81613e3a565b965050612ea0565b8015612ff4576000612f558660016144ae565b90505b6012811015612ff2576000888281518110612f7557612f75613d51565b016020015160f81c905060308110801590612f91575060398111155b15612fd457612fa1603082614530565b612fac86600a614547565b612fb691906144ae565b945085612fc281613e3a565b9650508380612fd090614519565b9450505b83612fdf5750612ff2565b5080612fea81613e3a565b915050612f58565b505b601284101561303457600061300a856012614530565b9050600061301982600a61464c565b90506130258186614547565b9b9a5050505050505050505050565b5090979650505050505050565b60408051600080825260208201808452825190209092909161306591859101613e08565b60405160208183030381529060405280519060200120149050919050565b80156131cd5760005b6000838152600760205260409020600b01548110156131c8576000838152600760208181526040808420858552600a019091528220600480546001810182559352805490929091027f8a35acfbc15ff81a39ae7d344fd709f28e8600b4aa8c65c6b64bfe7fe36bd19b019082908290829082908190839061310c90614078565b6131179291906134b6565b50600191820154910155600291820154910180546001600160a01b03199081166001600160a01b039384161790915560038481018054918501805490931691909316178155600480850180549185019161317090614078565b61317b9291906134b6565b50600282810180546131909284019190613531565b50505060068201816006019080546131a790614078565b6131b29291906134b6565b50505080806131c090613e3a565b91505061308c565b505050565b60005b6000838152600760205260409020600d01548110156131c8576000838152600760208181526040808420858552600c019091528220600580546001810182559352805490929091027f036b6384b5eca791c62761152d0c79bb0604c104a5fb6f4eb0703f3154bb3db0019082908290829082908190839061325090614078565b61325b9291906134b6565b50600191820154910155600291820154910180546001600160a01b03199081166001600160a01b03938416179091556003848101805491850180549093169190931617815560048085018054918501916132b490614078565b6132bf9291906134b6565b50600282810180546132d49284019190613531565b50505060068201816006019080546132eb90614078565b6132f69291906134b6565b505050808061330490613e3a565b9150506131d0565b82805461331890614078565b90600052602060002090601f01602090048101928261333a5760008555613380565b82601f1061335357805160ff1916838001178555613380565b82800160010185558215613380579182015b82811115613380578251825591602001919060010190613365565b5061338c929150613587565b5090565b60405180606001604052806133a36133d0565b81526040805160608082018352600082526020828101829052928201529101908152602001606081525090565b60405180604001604052806133f8604051806040016040528060608152602001600081525090565b8152600060209091015290565b828054828255906000526020600020908101928215613452579160200282015b82811115613452578251805161344291849160209091019061330c565b5091602001919060010190613425565b5061338c92915061359c565b508054600082556007029060005260206000209081019061347f91906135b9565b50565b60405180608001604052806134956133d0565b81526020016134a26133d0565b815260200160008152600060209091015290565b8280546134c290614078565b90600052602060002090601f0160209004810192826134e45760008555613380565b82601f106134f55780548555613380565b8280016001018555821561338057600052602060002091601f016020900482015b82811115613380578254825591600101919060010190613516565b8280548282559060005260206000209081019282156134525760005260206000209182015b8281111561345257828290805461356c90614078565b6135779291906134b6565b5091600101919060010190613556565b5b8082111561338c5760008155600101613588565b8082111561338c5760006135b08282613637565b5060010161359c565b8082111561338c576000818181816135d18282613637565b50600060019190910181905560029290920180546001600160a01b0319908116909155600385018054909116815591905061360f6004850182613637565b61361d600283016000613671565b5061362e9050600683016000613637565b506007016135b9565b50805461364390614078565b6000825580601f10613653575050565b601f01602090049060005260206000209081019061347f9190613587565b508054600082559060005260206000209081019061347f919061359c565b6001600160a01b038116811461347f57600080fd5b634e487b7160e01b600052604160045260246000fd5b6040516080810167ffffffffffffffff811182821017156136dd576136dd6136a4565b60405290565b6040805190810167ffffffffffffffff811182821017156136dd576136dd6136a4565b604051601f8201601f1916810167ffffffffffffffff8111828210171561372f5761372f6136a4565b604052919050565b600067ffffffffffffffff821115613751576137516136a4565b5060051b60200190565b600067ffffffffffffffff821115613775576137756136a4565b50601f01601f191660200190565b600082601f83011261379457600080fd5b81356137a76137a28261375b565b613706565b8181528460208386010111156137bc57600080fd5b816020850160208301376000918101602001919091529392505050565b600082601f8301126137ea57600080fd5b813560206137fa6137a283613737565b82815260059290921b8401810191818101908684111561381957600080fd5b8286015b8481101561385957803567ffffffffffffffff81111561383d5760008081fd5b61384b8986838b0101613783565b84525091830191830161381d565b509695505050505050565b6000806040838503121561387757600080fd5b82356138828161368f565b915060208381013567ffffffffffffffff808211156138a057600080fd5b818601915086601f8301126138b457600080fd5b81356138c26137a282613737565b81815260059190911b830184019084810190898311156138e157600080fd5b8585015b83811015613919578035858111156138fd5760008081fd5b61390b8c89838a01016137d9565b8452509186019186016138e5565b508096505050505050509250929050565b60008060008060008060c0878903121561394357600080fd5b863567ffffffffffffffff8082111561395b57600080fd5b6139678a838b01613783565b975060208901359650604089013591506139808261368f565b9094506060880135906139928261368f565b909350608088013590808211156139a857600080fd5b6139b48a838b01613783565b935060a08901359150808211156139ca57600080fd5b506139d789828a01613783565b9150509295509295509295565b60008060008060008060c087890312156139fd57600080fd5b8635613a088161368f565b955060208701359450604087013567ffffffffffffffff80821115613a2c57600080fd5b613a388a838b01613783565b95506060890135945060808901359150613a518261368f565b90925060a088013590808211156139ca57600080fd5b600080600080600060a08688031215613a7f57600080fd5b853567ffffffffffffffff80821115613a9757600080fd5b613aa389838a01613783565b96506020880135955060408801359150613abc8261368f565b90935060608701359080821115613ad257600080fd5b613ade89838a01613783565b93506080880135915080821115613af457600080fd5b50613b01888289016137d9565b9150509295509295909350565b600060208284031215613b2057600080fd5b813567ffffffffffffffff811115613b3757600080fd5b613b4384828501613783565b949350505050565b60008060008060808587031215613b6157600080fd5b843567ffffffffffffffff80821115613b7957600080fd5b613b8588838901613783565b9550602087013594506040870135915080821115613ba257600080fd5b613bae88838901613783565b93506060870135915080821115613bc457600080fd5b50613bd187828801613783565b91505092959194509250565b60008060408385031215613bf057600080fd5b50508035926020909101359150565b60005b83811015613c1a578181015183820152602001613c02565b83811115613c29576000848401525b50505050565b600082601f830112613c4057600080fd5b8151613c4e6137a28261375b565b818152846020838601011115613c6357600080fd5b613b43826020830160208701613bff565b600060208284031215613c8657600080fd5b815167ffffffffffffffff811115613c9d57600080fd5b613b4384828501613c2f565b60008551613cbb818460208a01613bff565b855190830190613ccf818360208a01613bff565b01938452505060601b6bffffffffffffffffffffffff1916602082015260340192915050565b60008151808452613d0d816020860160208601613bff565b601f01601f19169290920160200192915050565b602081526000613d346020830184613cf5565b9392505050565b634e487b7160e01b600052602160045260246000fd5b634e487b7160e01b600052603260045260246000fd5b604081526000613d7a6040830185613cf5565b90508260208301529392505050565b60008060408385031215613d9c57600080fd5b8251613da78161368f565b602084015190925067ffffffffffffffff811115613dc457600080fd5b613dd085828601613c2f565b9150509250929050565b604081526000613ded6040830185613cf5565b8281036020840152613dff8185613cf5565b95945050505050565b60008251613e1a818460208701613bff565b9190910192915050565b634e487b7160e01b600052601160045260246000fd5b6000600019821415613e4e57613e4e613e24565b5060010190565b600060208284031215613e6757600080fd5b5051919050565b80518015158114613e7e57600080fd5b919050565b60006020808385031215613e9657600080fd5b825167ffffffffffffffff80821115613eae57600080fd5b9084019060808287031215613ec257600080fd5b613eca6136ba565b825182811115613ed957600080fd5b830160408189031215613eeb57600080fd5b613ef36136e3565b815184811115613f0257600080fd5b82016040818b031215613f1457600080fd5b613f1c6136e3565b815186811115613f2b57600080fd5b613f378c828501613c2f565b825250908701518782015281529085015190613f528261368f565b8086019190915281528284015182811115613f6c57600080fd5b613f7888828601613c2f565b85830152506040830151935081841115613f9157600080fd5b613f9d87858501613c2f565b6040820152613fae60608401613e6e565b60608201529695505050505050565b60008151604084528051604080860152613fda6080860182613cf5565b6020928301516060870152938201516001600160a01b0316949091019390935250919050565b82815260406020820152600082516080604084015261402260c0840182613fbd565b90506020840151603f19808584030160608601526140408383613cf5565b925060408601519150808584030160808601525061405e8282613cf5565b9150506060840151151560a0840152809150509392505050565b600181811c9082168061408c57607f821691505b602082108114156140ad57634e487b7160e01b600052602260045260246000fd5b50919050565b8054600090600181811c90808316806140cd57607f831692505b60208084108214156140ef57634e487b7160e01b600052602260045260246000fd5b8388526020880182801561410a576001811461411b57614146565b60ff19871682528282019750614146565b60008981526020902060005b8781101561414057815484820152908601908401614127565b83019850505b5050505050505092915050565b60408252604080830152600061416c60808401836140b3565b600183015460608501526001600160a01b0360028401541660208501528091505092915050565b6060825260006141a66060840183614153565b6020848203818601526001600160a01b0360038501541682526060818301526141d560608301600486016140b3565b60058501838203604085015281935080548083528383019450838160051b8401018260005284600020925060005b8281101561423157848203601f1901875261421e82856140b3565b9686019660019485019490925001614203565b5088810360408a01526142478160068a016140b3565b9998505050505050505050565b600081548084526020808501808196508360051b81019150856000528260002060005b858110156142a357828403895261428e8483614193565b98850198935060079190910190600101614277565b5091979650505050505050565b6040815260006142c36040830185613fbd565b8281036020840152613dff8185614254565b828152604060208201526000613b436040830184613cf5565b6001600160a01b03815116825260006020808301516060828601526143166060860182613cf5565b9050604084015185820360408701528181518084528484019150848160051b850101858401935060005b8281101561436e57601f1986830301845261435c828651613cf5565b94870194938701939150600101614340565b5098975050505050505050565b60608152600061438e6060830186613fbd565b82810360208401526143a081866142ee565b905082810360408401528351606082526143bd6060830182613fbd565b9050602085015182820360208401526143d682826142ee565b915050604085015182820360408401526143f08282613cf5565b98975050505050505050565b6001600160a01b0383168152604060208201526000613b436040830184613cf5565b60a08152600061443160a0830188614153565b82810360208401526144438188614193565b9050828103604084015261445781876142ee565b9050828103606084015261446b8186614254565b905082810360808401526143f08185614254565b60006001600160a01b03808316818516818304811182151516156144a5576144a5613e24565b02949350505050565b600082198211156144c1576144c1613e24565b500190565b60006001600160a01b03838116908316818110156144e6576144e6613e24565b039392505050565b60006001600160a01b0380831681851680830382111561451057614510613e24565b01949350505050565b60008161452857614528613e24565b506000190190565b60008282101561454257614542613e24565b500390565b600081600019048311821515161561456157614561613e24565b500290565b600181815b808511156145a157816000190482111561458757614587613e24565b8085161561459457918102915b93841c939080029061456b565b509250929050565b6000826145b857506001614646565b816145c557506000614646565b81600181146145db57600281146145e557614601565b6001915050614646565b60ff8411156145f6576145f6613e24565b50506001821b614646565b5060208310610133831016604e8410600b8410161715614624575081810a614646565b61462e8383614566565b806000190482111561464257614642613e24565b0290505b92915050565b6000613d3483836145a956fe446570656e64656e74207472616e73616374696f6e20726573756c7420636f756e74206e6f74206d61746368206272616e63682070726570617265207472616e73616374696f6e20636f756e744e6f7420666f756e64207072696d61727920707265706172652074782073746174757374746c486569676874206174206c65617374206f6e652073686f756c64206265207365745072696d61727920636f6e6669726d2074782070726f6f662063616e6e6f7420656d7074794475706c696361746520636f6e6669726d20676c6f62616c207472616e73616374696f6e207265717565737474746c54696d65206174206c65617374206f6e652073686f756c6420626520736574a26469706673582212205df9cfd8c444c4d57a79e277748632e407048b9d529a12d7bd0bbed10bdb89ea64736f6c63430008090033",
  "immutableReferences": {},
  "source": "// SPDX-License-Identifier: GPL-3.0\npragma solidity >=0.7.0 <0.9.0;\n\nimport \"../lib/Utils.sol\";\nimport \"../lib/Constants.sol\";\nimport \"../lib/Enums.sol\";\nimport \"../lib/Structs.sol\";\n\nimport \"../sidemesh/Sidemesh.sol\";\nimport \"../resource/Verifier.sol\";\nimport \"../resource/Register.sol\";\nimport \"../lock/LockManager.sol\";\n\ninterface IGlobalTransactionManager{\n        \n    function startGlobalTransaction(\n        uint ttlHeight,\n        uint ttlTime)\n        external;\n        \n    function registerNetworkTransaction(\n        string memory network,\n        uint chain,\n        address contractC, \n        string memory functionC, \n        string[] memory args)\n        external;\n\n    function preparePrimaryTransaction(\n        string memory functionC) \n        external;\n\n    function confirmPrimaryTransaction(\n            address primaryPrepareTxSender,\n            string[][] memory networkTxRes\n        )external;\n\n    function startNetworkTransaction(\n        string memory primaryNetwork,\n        uint primaryChain,\n        string memory primaryTxID,\n        string memory primaryTxProof)\n        external;\n\n    function prepareNetworkTransaction(\n        string memory primaryNetwork,\n        uint primaryChain,\n        address primaryTxSender,\n        address globalTxQueryContract,\n        string memory globalTxQueryFunc,\n        string memory functionC)\n        external;\n    \n    function confirmNetworkTransaction(\n        address networkPrepareTxSender,\n        uint globalTxStatus,\n        string memory primaryNetwork,\n        uint primaryChain,\n        address primaryConfirmTxSender,\n        string memory primaryConfirmTxProof)\n        external;\n}\n\ncontract GlobalTransactionManager is IGlobalTransactionManager{\n    \n    ISidemesh sidemesh;\n    IVerifier verifier;\n    IRegister registry;\n    ILockManagerGlobalTransaction lockManager;\n\n    Structs.NetworkTransaction[] networkPrepareTxs;\n    Structs.NetworkTransaction[] networkConfirmTxs;\n\n    mapping(bytes32 => Structs.GlobalTransactionStatus) globalTransactionStatuses;\n    mapping(bytes32 => Structs.GlobalTransaction) globalTransactions;\n\n    constructor (\n        address _sidemesh,\n        address _registery,\n        address _verifier,\n        address _lockManager){\n            sidemesh = ISidemesh(_sidemesh);\n            registry = IRegister(_registery);\n            verifier = IVerifier(_verifier);\n            lockManager = ILockManagerGlobalTransaction(_lockManager);\n        }\n    \n    function getNetworkTxs(bytes32 xidKey, bool porc)internal{\n        if(porc){\n            for(uint i=0; i<globalTransactions[xidKey].networkPrepareTxsLength;i++){\n                networkPrepareTxs.push(globalTransactions[xidKey].networkPrepareTxs[i]);\n            }\n        }else{\n            for(uint i=0; i<globalTransactions[xidKey].networkConfirmTxsLength;i++){\n                networkConfirmTxs.push(globalTransactions[xidKey].networkConfirmTxs[i]);\n            }\n        }\n    }\n\n    function startGlobalTransaction(\n        uint ttlHeight,\n        uint ttlTime)\n        external{\n            require(ttlHeight >= 0, Constants.ERROR_TTLHEIGHT);\n            require(ttlTime != 0, Constants.ERROR_TTLTIME);\n            string memory network = sidemesh.getNetwork();\n            bytes32 xid = Utils.hash(abi.encodePacked(Constants.PREFIX, network, block.chainid, msg.sender));\n\n            Structs.GlobalTransaction storage globalTx = globalTransactions[xid];\n            globalTx.primaryPrepareTxId = Structs.TransactionID(Structs.URI(network, block.chainid), msg.sender);\n            globalTx.networkPrepareTxsLength = 0;\n            globalTx.networkConfirmTxsLength = 0;\n            globalTx.ttlHeight = ttlHeight;\n            globalTx.ttlTime = ttlTime;\n            globalTx.isValid = true;\n        }\n\n    function registerNetworkTransaction(\n        string memory network,\n        uint chain,\n        address contractC, \n        string memory functionC, \n        string[] memory args)\n        external{\n            string memory primaryNetwork = sidemesh.getNetwork();\n            bytes32 xid = Utils.hash(abi.encodePacked(Constants.PREFIX, primaryNetwork, block.chainid, msg.sender));\n\n            Structs.NetworkTransaction memory txId;\n            txId.txId = Structs.TransactionID(Structs.URI(network, chain), msg.sender);\n            txId.invocation = Structs.Invocation(contractC, functionC, args);\n\n            globalTransactions[xid].networkPrepareTxs[globalTransactions[xid].networkPrepareTxsLength] = txId;\n            globalTransactions[xid].networkPrepareTxsLength++;\n        }\n    \n    function preparePrimaryTransaction(\n        string memory functionC) \n        external{\n            string memory network = sidemesh.getNetwork();\n            bytes32 xidKey = Utils.hash(abi.encodePacked(Constants.PREFIX, network, block.chainid, msg.sender));\n            \n            Structs.Invocation memory invocation;\n            invocation.functionC = functionC;\n            invocation.args = new string[](1);\n            invocation.args[0] = Utils.toString(abi.encodePacked(msg.sender));\n            \n            Structs.NetworkTransaction memory txId;\n            txId.txId = Structs.TransactionID(Structs.URI(network, block.chainid), msg.sender);\n            txId.invocation = invocation;\n\n            globalTransactions[xidKey].primaryConfirmTx = txId;\n\n            Structs.GlobalTransactionStatus memory globalTxStatus;\n            globalTxStatus.primaryPrepareTxId = globalTransactions[xidKey].primaryPrepareTxId;\n            globalTxStatus.status = Enums.GlobalTransactionStatusType.PRIMARY_TRANSACTION_PREPARED;\n            globalTxStatus.isValid = true;\n            \n            globalTransactionStatuses[xidKey] = globalTxStatus;\n\n            if(lockManager.getWriteKeySetLength(xidKey) > 0){\n                for(uint i=0; i<lockManager.getWriteKeySetLength(xidKey); i++){\n                    lockManager.putWSet(xidKey, lockManager.getWriteKeySet(xidKey, i));\n                }\n            }\n\n            Structs.Invocation memory queryGlobalTxInvocation;\n            queryGlobalTxInvocation.functionC = Constants.QUERYGLOBALTXSTATUS;\n            \n            getNetworkTxs(xidKey, true);\n            getNetworkTxs(xidKey, false);\n\n            emit Structs.PrimaryTransactionPreparedEvent(\n                globalTransactions[xidKey].primaryPrepareTxId,\n                globalTransactions[xidKey].primaryConfirmTx,\n                queryGlobalTxInvocation,\n                networkPrepareTxs,\n                networkConfirmTxs\n                );\n            \n            delete networkPrepareTxs;\n            delete networkConfirmTxs;\n        }\n\n    function confirmPrimaryTransaction(\n            address primaryPrepareTxSender,\n            string[][] memory networkTxRes\n        )external{\n            string memory network = sidemesh.getNetwork();\n            bytes32 xidKey = Utils.hash(abi.encodePacked(Constants.PREFIX, network, block.chainid, primaryPrepareTxSender));\n\n            require(globalTransactionStatuses[xidKey].isValid, Constants.ERROR_NO_PRIMARY_TX);\n\n            require(\n                globalTransactionStatuses[xidKey].status == Enums.GlobalTransactionStatusType.PRIMARY_TRANSACTION_PREPARED,\n                Constants.ERROR_DUPLICATE_TX_STATUS);\n\n            require(globalTransactions[xidKey].isValid, Constants.ERROR_NO_GLOBAL_TX);\n\n            require(\n                globalTransactions[xidKey].networkPrepareTxsLength == networkTxRes.length,\n                Constants.ERROR_DEPENDENT_TX\n            );\n\n            uint numVerified = 0;\n            for(uint i=0;i<networkTxRes.length;i++){\n                globalTransactions[xidKey].networkPrepareTxs[i].txId.sender = Utils.toAddress(networkTxRes[i][2]);\n                globalTransactions[xidKey].networkPrepareTxs[i].proof = networkTxRes[i][3];\n\n                (address contractC, string memory functionC) = verifier.resolve(networkTxRes[i][0], Utils.toUint(networkTxRes[i][1]));\n                require(!Utils.checkAddress(contractC), Constants.ERROR_CONTRACT);\n                require(!Utils.isEmpty(functionC), Constants.ERROR_FUNCTION);\n\n                if(!Utils.isEmpty(networkTxRes[i][3])){\n                    (bool success,) = contractC.call(abi.encodeWithSignature(functionC, networkTxRes[i][2], networkTxRes[i][3]));\n                    require(success, Constants.ERROR_FAILED);\n                    numVerified++;\n                }\n            }\n            if (numVerified == globalTransactions[xidKey].networkPrepareTxsLength) {\n                globalTransactionStatuses[xidKey].status = Enums.GlobalTransactionStatusType.PRIMARY_TRANSACTION_COMMITTED;\n            } else {\n                globalTransactionStatuses[xidKey].status = Enums.GlobalTransactionStatusType.PRIMARY_TRANSACTION_CANCELED;\n            }\n            \n            \n            if(lockManager.getWSetLength(xidKey) > 0){\n                for(uint i=0; i<lockManager.getWSetLength(xidKey); i++){\n                    bytes32 hash = Utils.hash(abi.encodePacked(lockManager.getWSet(xidKey, i)));\n                    \n                    Structs.Lock memory lock = lockManager.getLock(hash);\n                    \n                    require(lock.isValid, Constants.ERROR_NO_LOCK);\n                    \n                    if(globalTransactionStatuses[xidKey].status == Enums.GlobalTransactionStatusType.PRIMARY_TRANSACTION_COMMITTED){\n                        lockManager.putLock(hash, lockManager.lockDeserializer(lock.updatingState));    \n                    }else if(globalTransactionStatuses[xidKey].status == Enums.GlobalTransactionStatusType.PRIMARY_TRANSACTION_CANCELED){\n                        lockManager.putLock(hash, lockManager.lockDeserializer(lock.prevState)); \n                    }\n                }\n            }\n            \n            for(uint i=0; i<globalTransactions[xidKey].networkPrepareTxsLength;i++){\n                Structs.NetworkTransaction memory networkConfirmTx;\n                Structs.TransactionID memory txId;\n                txId.uri = Structs.URI(\n                            globalTransactions[xidKey].networkPrepareTxs[i].txId.uri.network,\n                            globalTransactions[xidKey].networkPrepareTxs[i].txId.uri.chain);\n                networkConfirmTx.txId = txId;\n\n                Structs.Invocation memory invocation;\n                invocation.contractC = globalTransactions[xidKey].networkPrepareTxs[i].invocation.contractC;\n                invocation.functionC = globalTransactions[xidKey].networkPrepareTxs[i].invocation.functionC;\n                invocation.args = new string[](5);\n                invocation.args[0] = Utils.toString(abi.encodePacked(globalTransactions[xidKey].networkPrepareTxs[i].txId.sender));\n                invocation.args[1] = Utils.toString(abi.encodePacked(uint(globalTransactionStatuses[xidKey].status)));\n                invocation.args[2] = network;\n                invocation.args[3] = Utils.toString(abi.encodePacked(block.chainid));\n                invocation.args[4] = Utils.toString(abi.encodePacked(msg.sender));\n\n                networkConfirmTx.invocation = invocation;\n\n                globalTransactions[xidKey].networkConfirmTxs[globalTransactions[xidKey].networkConfirmTxsLength] = networkConfirmTx;\n                globalTransactions[xidKey].networkConfirmTxsLength++;\n            }\n\n            getNetworkTxs(xidKey, false);\n\n            emit Structs.PrimaryTransactionConfirmedEvent(\n                Structs.TransactionID(Structs.URI(network, block.chainid), msg.sender),\n                networkConfirmTxs\n            );\n            delete networkConfirmTxs;\n        }\n\n    function startNetworkTransaction(\n        string memory primaryNetwork,\n        uint primaryChain,\n        string memory primaryTxID,\n        string memory primaryTxProof)\n        external{\n            require(!Utils.isEmpty(primaryTxProof), Constants.ERROR_PRIMARYTXPROOF);\n            (address contractC, string memory functionC) = verifier.resolve(primaryNetwork, primaryChain);\n            require(!Utils.checkAddress(contractC), Constants.ERROR_CONTRACT);\n            require(!Utils.isEmpty(functionC), Constants.ERROR_FUNCTION);\n\n            (bool success,) = contractC.call(abi.encodeWithSignature(functionC, primaryTxID, primaryTxProof));\n            require(success, Constants.ERROR_FAILED);\n        }\n    \n    function prepareNetworkTransaction(\n        string memory primaryNetwork,\n        uint primaryChain,\n        address primaryTxSender,\n        address globalTxQueryContract,\n        string memory globalTxQueryFunc,\n        string memory functionC)\n        external{\n            string memory network = sidemesh.getNetwork();\n            \n            Structs.TransactionID memory globalTxId = Structs.TransactionID(Structs.URI(primaryNetwork, primaryChain), primaryTxSender);\n            Structs.Invocation memory globalTxQuery = Structs.Invocation(globalTxQueryContract, globalTxQueryFunc, new string[](1));\n            globalTxQuery.args[0] = string(abi.encodePacked(primaryTxSender));\n\n            bytes32 bidKey = Utils.hash(abi.encodePacked(Constants.PREFIX, network, block.chainid, msg.sender));\n            if(lockManager.getWriteKeySetLength(bidKey) > 0){\n                for(uint i=0; i<lockManager.getWriteKeySetLength(bidKey); i++){\n                    lockManager.putWSet(bidKey, lockManager.getWriteKeySet(bidKey, i));\n                }\n            }\n            \n            Structs.Invocation memory invocation;\n            invocation.functionC = functionC;\n            invocation.args = new string[](1);\n            invocation.args[0] = Utils.toString(abi.encodePacked(msg.sender));\n            \n            Structs.NetworkTransaction memory networkConfirmTx;\n            networkConfirmTx.txId = Structs.TransactionID(Structs.URI(network, block.chainid), msg.sender);\n            networkConfirmTx.invocation = invocation;\n\n            emit Structs.NetworkTransactionPreparedEvent(\n                globalTxId,\n                globalTxQuery,\n                networkConfirmTx\n                );\n        }\n\n    function confirmNetworkTransaction(\n        address networkPrepareTxSender,\n        uint globalTxStatus,\n        string memory primaryNetwork,\n        uint primaryChain,\n        address primaryConfirmTxSender,\n        string memory primaryConfirmTxProof)\n        external{\n            (address contractC, string memory functionC) = verifier.resolve(primaryNetwork, primaryChain);\n            require(!Utils.checkAddress(contractC), Constants.ERROR_CONTRACT);\n            require(!Utils.isEmpty(functionC), Constants.ERROR_FUNCTION);\n\n            require(!Utils.isEmpty(primaryConfirmTxProof), Constants.ERROR_NO_PRIMARY_CONFIRM_TX_PROOF);\n\n            (bool success,) = contractC.call(abi.encodeWithSignature(functionC, primaryConfirmTxSender, primaryConfirmTxProof));\n            require(success, Constants.ERROR_NO_PRIMARY_CONFIRM_TX);\n\n            string memory network = sidemesh.getNetwork();\n            bytes32 bidKey = Utils.hash(abi.encodePacked(Constants.PREFIX, network, block.chainid, networkPrepareTxSender));\n\n            if(lockManager.getWSetLength(bidKey) > 0){\n                for(uint i=0; i<lockManager.getWSetLength(bidKey); i++){\n                    bytes32 hash = Utils.hash(abi.encodePacked(lockManager.getWSet(bidKey, i)));\n\n                    Structs.Lock memory lock = lockManager.getLock(hash);\n\n                    require(lock.isValid, Constants.ERROR_NO_LOCK);\n                    \n                    if(globalTxStatus == uint(Enums.GlobalTransactionStatusType.PRIMARY_TRANSACTION_COMMITTED)){\n                        lockManager.putLock(hash, lockManager.lockDeserializer(lock.updatingState));    \n                    }else if(globalTxStatus == uint(Enums.GlobalTransactionStatusType.PRIMARY_TRANSACTION_CANCELED)){\n                        lockManager.putLock(hash, lockManager.lockDeserializer(lock.prevState)); \n                    }\n                }\n            }\n    }\n}",
  "sourcePath": "/Users/shri99/WebProjects/sidecar-contract-kit/sidemesh-solidity/contracts/transaction/GlobalTransactionManager.sol",
  "compiler": {
    "name": "solc",
    "version": "0.8.9+commit.e5eed63a.Emscripten.clang"
  },
  "schemaVersion": "3.3.3",
  "updatedAt": "2021-11-11T13:56:42.223Z",
  "devdoc": {
    "kind": "dev",
    "methods": {},
    "version": 1
  },
  "userdoc": {
    "kind": "user",
    "methods": {},
    "version": 1
  }
}